:102623005541525420696E697469616C697A6564B5
:102633002E0A004B4D4C696220696E697469616CA6
:10264300697A65642E0A00457870496E746572660E
:1026530061636520696E697469616C697A65642E6A
:102663000A002530325820000A00696663202530AD
:102673003278206B6579626F6172640A0069666300
:102683002025303278206D6F7573650A00696663A3
:102693002025303278206D6F7573652D62696F73F5
:0226A3000A002B
:0A2D55004206200000011100C195A4
:102F380005A105A105A105A105A105A105A105A159
:102F480005A122A3F07B007A00793022743125256F
:032F5800F8E62276
:10315000EF4E600F122F3805A1122F38EF1F70F0BD
:043160001E80ED22BE
:1030DE00AD07AC06ED4C600E7FE87E03123150ED6D
:0730EE001D70F11C80EE22B1
:101BBD001231D27F147E0012310C12281412323AD7
:101BCD007BFF7A2679231210381230F57BFF7A26A7
:101BDD007936121038C20B12232F7BFF7A26794AE1
:031BED001210389B
:101BF000122E449005A6E4F0A37400F0A3743BF009
:101C0000A3E4F0A37400F0A37426F0A3E4F0A3749B
:101C100000F0743A122F4BE4FF1200038F25E525E4
:101C20006003021CCDF525E525C3953B500B7A26B4
:101C30007965121D3A052580EE7BFF7A26796B12B5
:101C40001038122F4D1228897F0512313AC0D07FEB
:101C50000112313AD0F072F7C0D07F0412313AC08D
:101C6000D0E4FF12313AD0F072F7D0F082F7C0D052
:101C70007F0612313AC0D07F0212313AD0F072F7AB
:101C8000D0F082F750107F29122F5B50040511D23B
:101C9000157F291230AE30151BE51114600C14604D
:101CA0000E2402700D1232DA800812321E800312E6
:101CB000322CC215E51114600C14600E2402700D54
:101CC0001232E38008122A748003122AC49006207C
:101CD000E07002A3E0705274FF900620F0A3F09031
:101CE00005A6E4F0A37400F0743B122F4BE4FF123E
:101CF00023DAE4F525E525C3953B502D122F54B486
:101D000030077A26796D121D3A122F54B431077AB2
:101D1000267980121D4F122F54B432077A267990FB
:101D2000121D4F0525052580CC900621E024FFF0EB
:071D3000900620E034FFF0F3
:101D3700021BF07BFF74302525F8E6FF9005A5E42C
:101D4700F0A3EFF0121038227BFF74302525F8E658
:0D1D5700FF9005A5E4F0A3EFF01210382274
:10281400C29FD29EC29DC2CDC2CC438780E4753F85
:1028240008753E02F53DF53C7B0AFAF9F8AF3FAE78
:102834003EAD3DAC3C12152CAF038F40AF3FAE3ED6
:10284400AD3DAC3CE47B0AFAF9F812152C8F3F8EAF
:102854003E8D3D8C3CE540C394054011EF2401F5C9
:102864003FE43EF53EE43DF53DE43CF53CE589546A
:102874000F4420F58943C9A0E53FF404F58DD28EB9
:04288400D299D29C77
:01288800222D
:0D323A0043C60143C40843C50C43CE102217
:1028F30080060001000012008006000200000400B0
:1029030000050200000000000009000000000000B4
:102913000201000000000000A006002900000900D9
:102923008106002200004100210B0000000000008E
:10293300210A000000000000210A007D00000000C1
:10294300210A001600000000210900020000010016
:0829530081060022000088004B
:042D5F004105DA0050
:102DEC00EF75F01EA42402F582E43410F583E4F0B0
:102DFC00EF75F01EA42403F582E43410F583E4F09F
:0C2E0C00EFB40104E4F5E522E4F5E42253
:10227500E49005BDF0E5DB30E32C901002E060054D
:10228500E5E420E047E4FF122DEC9010027402F023
:10229500E5DB30E20280027F01901004EFF090054B
:1022A500BD7415F08026901002E0C39402401DE431
:1022B500FF122DEC9005BDE070037416F07E007FD3
:1022C5001E7D007B017A1079001215CAE5DB30E727
:1022D5002D901020E06005E5E520E0487F01122DF6
:1022E500EC9010207402F0E5DB30E2031F80027FE2
:1022F50001901022EFF09005BD7415F08026901026
:1023050020E0C39402401D7F01122DEC9005BDE035
:1023150070037416F07E007F1E7D007B017A1079B4
:092325001E1215CA9005BDE0FF6F
:01232E00228C
:0C325400EF547FFFE5E354804FF5E322C8
:0E321000EF600753E2BF53D27F2243E2402219
:102CE700CEEFCE9005D97408F0E4FF123254EEB45B
:102CF700010F43E5027F0F7E001230DE53E5FD80B2
:102D07000D43E4027F0F7E001230DE53E4FD7FFAAD
:082D17007E00123150C2D822E7
:10279D00EF75F01EA42402F582E43410F583E0C336
:1027AD0094025011EF75F01EA42402F582E434104A
:1027BD00F5837402F0EF64017025E5DB30E745E544
:1027CD00E520E015E5DB30E6047F0080027F019017
:1027DD001022EFF0700343E50443E5017F0022E58D
:1027ED00DB30E320E5E420E015E5DB30E2047F009B
:1027FD0080027F01901004EFF0700343E40443E482
:07280D00017F00227F16226B
:102D8800CEEFCEEE75F01EA42403F582E43410F5E0
:102D980083E0FF123254EE75F01EA42404F582E499
:102DA8003410F583E0FF123210EE6003D38001C3C4
:032DB8009217224D
:031F9B00E4FBFA6A
:0B1F9E009005BAEFF0A3EAF0A3EBF00F
:101FA900CFEDCF8FD68FD4E4F5DD9005BAE0F5D526
:101FB900C2D97F207E0320D909EF1F70011EEF4E81
:101FC90070F4E4F5D520D9037FFE2230D836C2D883
:101FD900122275EFB41502D216A217E4339010023B
:101FE90075F01E1215BEE475F01EA42583F583E075
:101FF900FE70037F1622EEB402037F15227FC87E8E
:102009000012315030D96730DE037F0022E5D95400
:102019000FFFB40E028043EFB40A299005BBE0FC20
:10202900A3E0FD4C7003EF803EC3ED94FFEC94FFF9
:10203900500E9005BCE024FFF09005BBE034FFF0A2
:1020490015DD802D9005BAE0C4540F24F7600D24E6
:10205900FC6004240C7014EF6017800BEFB40304C8
:10206900640B600DEF600A4420FF227FFE2275D8C1
:10207900FF7F0F7E0012315005DDAFDDEFC3940AFB
:072089005003021FB37F208A
:01209000222D
:0B163C00EBF07B007A007900E4FFFE79
:101647009005B5EEF0A3EFF0A3EBF0A3EAF0A3E962
:10165700F07FC87E001231509005B7E0FBA3E0FA97
:10166700A3E0F9EA494B6004E412149075D7087BAC
:10167700107A27E4FD7FD0121F9E9005CAEFF06015
:1016870003E0FF2275D6D075D4D075D701900047F7
:10169700E060047FFF8005900046E0FF9005CBEFF8
:1016A700F070030218179005B5E07002A3E070030D
:1016B700021817900040E020E7030217789005CB47
:1016C700E070030217727FC87E001231507B107AD8
:1016D70027ADD47F90121F9E9005CAEFF0E0FF6000
:1016E70001229005CBE0FFE5D1C39F5007AED1CFD4
:1016F700EECF80009005CCEFF09005CBE0FFA3E0A4
:10170700FEC3EF9E9005CBF09005B7E0FBA3E0FA90
:10171700A3E0F9EA494B6004EE12146EE49005CD9C
:10172700F09005CCE0FFA3E0FE6F602F74002EF56C
:1017370082E43400F583E0FF9005B5E0FCA3E0F513
:10174700828C83EFF09005B6E004F070069005B543
:10175700E004F09005CDE004F080C6E5D1600C9080
:1017670005D9E01455D170030216C4E4F5D7021861
:10177700179005CBE070030218177FC87E0012315F
:10178700509005D9E0FF9005CBE0FEC39F40028053
:1017970003CFEECF8FD7E49005CEF09005CEE0FFD4
:1017A70065D7602F9005B5E0FCA3E0F5828C83E058
:1017B700FE74402FF582E43400F583EEF09005B611
:1017C700E004F070069005B5E004F09005CEE00463
:1017D700F080C87B107A27ADD67F10121F9E900528
:1017E700CAEFF0E0FF6001229005CBE0C395D7F088
:1017F7009005B7E0FBA3E0FAA3E0F9EA494B7003D1
:101807000217789005B7A3A3E5D712146E021778CD
:101817007FC87E00123150E5D760047F9080027F39
:10182700107B107A277DC0121F9E9005CAEFF060CB
:1018370003E0FF22E5D77002FF22E5D17002FF2205
:021847007F1709
:01184900227C
:10300700E4FD8F828E83E493FC74402DF582E434D3
:0F30170000F583ECF00FBF00010E0DEDB408E3E0
:013026002287
:102CAD009005D97408F07E287FF31230077E007FDF
:102CBD00407B017A0579AA121647EF600122900038
:102CCD0047E09005D9F09028F9E493FF9005AAE02C
:092CDD00C39F50037F17227F0002
:012CE60022CB
:10247E007E287FFB1230077E007F407B017A057934
:10248E00AA121647EF600122902901E493FDC39032
:10249E0005ABE09D9005AAE0940050037F172290B3
:1024AE000042E0FD9005AAE4F0A3EDF0D3E09440E5
:1024BE009005AAE0940040037F17227E287FFB122E
:1024CE0030079005AAA3E0900046F07E007F407B87
:1024DE00017A0579AA121647EF600122902901E4CC
:1024EE0093FF9005AAE0FCA3E0FDC39FEC9400408F
:1024FE000C900042E0FFED9FEC940050037F1722FA
:02250E007F004C
:0125100022A8
:052E18009005AAEFF097
:102E1D007E297F031230079005AAE090004212161A
:102E2D003DEF6001229005AAE0FF1232547F0A7E29
:062E3D00001230DE7F00F0
:012E4300226C
:10319F00CBEFCB7E297F0B12300790004212163CEB
:0131AF0022FD
:103063009005B4EFF07E297F4B1230077E057FB4C5
:093073007B007A00790002164787
:1031B000CBEFCB7E297F2B12300790004412163CB8
:0131C00022EC
:10307C00CBEDCBCAEFCA7E297F33123007900044C8
:09308C00EAF090004312163C2208
:102DBB00CBEFCBCAEECAC9EDC97E297F53123007C0
:102DCB00EB2440900046F0EB2440E43AA3F0900053
:102DDB0044E9F07E007F407B007A007900121647B1
:012DEB0022C5
:0806EF009005AAEFF0A3EDF065
:1006F700900040E064056003020BE7A3E06401603B
:1007070003020BE7A3E064096003020BE7A3E064BD
:10071700026003020BE7FE7F05EEC0E0EFC0E07D5D
:10072700FF9005AAE075F005A424CFF9740535F00C
:10073700FA7B01D0E0FFD0E0FE1215CAE49005B3C2
:10074700F0A3F09005ACF0A37404F09005AAE0754F
:10075700F01EA42406F582E43410F583C083C0821A
:100767009005ABE0D082D08375F0061215BEE0FE8F
:10077700A3E0FF9005ACE0FCA3E0FDC39FEC9E4027
:1007870003020B3F74402DF58274003CF583E0FFB4
:100797005403FD9005AEE4F0A3EDF0EF540C24FCF8
:1007A70070030208A324FC7003020999240860035C
:1007B700020AAA9005ACE0FEA3E02440F58274008B
:1007C7003EF583E054F0244070030208782440602B
:1007D700030208929005ADE004F070069005ACE0C6
:1007E70004F09005B1E0FE7002FF229005B2E070C0
:1007F7000204F09005B4E064037060F09005AAE08D
:10080700FF75F005A424CFF582E43405F583EEF0F7
:10081700EF75F005A424D3F582E43405F583E0FEF3
:10082700EF75F005A424D1F582E43405F583E06E75
:1008370070299005AAE0FF75F005A424CFF582E49E
:100847003405F583E01313543FFEEF75F005A42438
:10085700D3F582E43405F583E02EF09005B2E0FF8E
:100867009005B1E08FF0A4FF9005B3E02FF0E4808E
:1008770071E49005B2F09005B1F09005ADE004F099
:1008870070179005ACE004F0020AB89005ADE004DB
:10089700F070069005ACE004F0020AB89005ACE0F1
:1008A700FEA3E02440F58274003EF583E054F06037
:1008B7005E2490603424F0700302097024F0600312
:1008C7000209889005ADE004F070069005ACE004DD
:1008D700F09005ACE0FEA3E02440F58274003EF5FD
:1008E70083E09005B2F0020AB89005ADE004F0701D
:1008F700069005ACE004F09005ACE0FEA3E02440D0
:10090700F58274003EF583E09005B1F0020AB890D5
:1009170005ADE004F070069005ACE004F09005AC7E
:10092700E0FEA3E02440F58274003EF583E064090D
:100937006003020AB89005AEE07004A3E0640160AA
:1009470003020AB89005B3E0FE540760037F002254
:10095700EE131313541FFF9005AAE075F005A424A6
:10096700D0F582E43405020A949005ADE004F070F6
:10097700069005ACE004F09005B3E02408F0020A05
:10098700B89005ADE004F070069005ACE004F00205
:100997000AB89005ACE0FEA3E02440F58274003E5F
:1009A700F583E054F06003020A9A9005ADE004F085
:1009B70070069005ACE004F09005ACE0FEA3E024DF
:1009C70040F58274003EF583E0FE6430703C90058C
:1009D700AEE07004A3E0640170309005B3E0FD540D
:1009E7000760037F0022ED131313541FFF9005AA1E
:1009F700E075F005A424D1F582E43405F583EFF022
:100A07009005B4E04401F0020AB8EE6431703B90FF
:100A170005AEE07004A3E06401702F9005B3E0FE1B
:100A2700540760037F0022EE131313541FFF900532
:100A3700AAE075F005A424D2F582E43405F583EF26
:100A4700F09005B4E04402F080679005ACE0FEA3A7
:100A5700E02440F58274003EF583E06438705290DC
:100A670005AEE07004A3E0640170469005B3E0FEB4
:100A7700540760037F0022EE131313541FFF9005E2
:100A8700AAE075F005A424D3F582E43405F583EFD5
:100A9700F0801E9005ADE004F070169005ACE00400
:100AA700F0800E9005ADE004F070069005ACE00410
:100AB700F09005AEE0FEA3E0FF9005ADE02FF090CB
:100AC70005ACE03EF09005AAE0FF75F005A424CF41
:100AD700F582E43405F583E0F47003020752EF75FD
:100AE700F005A424D0F582E43405F583E0F470031F
:100AF7000207529005AAE075F005A424D1F582E417
:100B07003405F583E0F47003020752EF75F005A48E
:100B170024D2F582E43405F583E0F470030207522A
:100B27009005AAE075F005A424D3F582E43405F511
:100B370083E0F470030207529005B3E013131354D4
:100B47001FFF9005AAE0FE75F005A424D0F582E406
:100B57003405F583E0D39F501EEE75F005A424CF2E
:100B6700F582E43405F583E0FF640C603FEF640829
:100B7700603AEF641060359005ABE0FF1231B0903A
:100B870005B0EFF09005AAE075F01EA4240AF582DF
:100B9700E43410F583C083C0829005ABE0FFD082B8
:100BA700D08375F0061215BE743280269005AAE030
:100BB70075F01EA4240AF582E43410F583C083C0BF
:100BC700829005ABE0FFD082D08375F0061215BE88
:100BD7007431F0E4FD12307C9005B0EFF07F012214
:100BE700900040E064057059A3E064017053A3E0EE
:100BF7006409704DA3E0640670479005ABE0FF12EF
:100C070031B09005B0EFF070389005ABE0FFE4FD30
:100C170012307C9005B0EFF09005AAE075F01EA4A5
:100C2700240AF582E43410F583C083C0829005ABB3
:100C3700E0D082D08375F0061215BE7430F07F01C4
:030C4700227F0009
:010C4A002287
:050C4B009005A4EFF08C
:100C5000122CE7E49005A6F0A3F07F017E0012308D
:100C6000DE9005A4E0FF12279DEF700E9005A6F020
:100C7000A3E004F0E0D3940A500C9005A6E004F041
:100C8000E0C3946440D49005A6E0600B9005A4E016
:100C9000FF122DEC7F03229005A4E0FF122D881295
:100CA0002CAD9005A7EFF06003020FC5900044E063
:100CB0009005A9F0902905E493FF9005A4E02FFF8B
:100CC000122E189005A7EFF06003020FC5902905BA
:100CD00093FF9005A4E0FE2FFFEE75F01EA4240301
:100CE000F582E43410F583EFF012247E9005A7EF2F
:100CF000F06003020FC5900044E0FF9005A4E0FE01
:100D000075F01EA42405F582E43410F583EFF0EEAF
:100D100075F01EA42405F582E43410F583E0D39425
:100D20000440037F0422900045E09005A8F0900065
:100D30004EE0FF9005A9E06003020FC5EF64036079
:100D400003020FC590004FE0D394014003020FC58A
:100D5000E49005A7F09005A6F09005A4E0FF75F0DB
:100D60001EA42405F582E43410F583E0FE9005A668
:100D7000E0C39E4003020F36A3E0FE2441F582E467
:100D80003400F583E0B4021274402EF582E434009E
:100D9000F583E0FE9005A7E02EF09005A7E0FE2485
:100DA00041F582E43400F583E0B4042174442EF567
:100DB00082E43400F583E09005A5F074402EF582BE
:100DC000E43400F583E0FE9005A7E02EF09005A73F
:100DD000E0FE2441F582E43400F583E06421600301
:100DE000020E9A74402EF582E43400F583E0FE9002
:100DF00005A7E02EF0E0FD243FF582E43400F58302
:100E0000E0FBEF75F01EA42406F582E43410F583B0
:100E1000C083C0829005A6E0D082D08375F0061210
:100E200015BEE4F0A3EBF09005A4E0FC75F01EA461
:100E30002406F582E43410F583C083C0829005A6B1
:100E4000E0D082D08375F0061215BEC083C082A3A5
:100E5000E0D082D083F0A3E4F0EC75F01EA4240669
:100E6000F582E43410F583C083C0829005A6E0D0FB
:100E700082D08375F0061215BEC083C082E0FEA347
:100E8000E0FF743E2DF582E43400F583E0FDEF4D84
:100E9000FFD082D083EEF0A3EFF09005A7E02441CD
:100EA000F582E43400F583E064056003020F2D90C1
:100EB00005A5E0FF14F0EF60749005A7E0FF244261
:100EC000F582E43400F583E030E714540FFE90051A
:100ED000A4E075F01EA42408F582E4341080249068
:100EE00005A7E0FF2442F582E43400F583E020E723
:100EF000BE540FFE9005A4E075F01EA42409F582EF
:100F0000E43410F583C083C0829005A6E0D082D07F
:100F10008375F0061215BEEEF074402FF582E434AE
:100F200000F583E0FF9005A7E02FF080829005A6F2
:100F3000E004F0020D599005A8E0FF12319F9005E2
:100F4000A7EFF06003020FC59005A6F09005A4E09E
:100F5000FF75F01EA42405F582E43410F583E0FE4D
:100F60009005A6E0FDC39E5043EF75F01EA4240635
:100F7000F582E43410F58375F006ED1215BEE0FE3F
:100F8000A3E0FF122DBB9005A7EFF070149005A40D
:100F9000E0FF9005A6E0FD1206EF9005A7EFF080B8
:100FA000037F04229005A6E004F080A090100AE0E0
:100FB000B4300F901028E0B430089005DBE0FF1249
:0C0FC00030637F10227F011232107F0688
:010FCC002202
:102A1C00E49005A3F09005A3E0FF64026047EF7516
:102A2C00F01EA42402F582E43410F583E0640270F5
:102A3C002C120C4BEF9005A36012E075F01EA42431
:102A4C0002F582E43410F583EFF08011E075F01E8E
:102A5C00A42402F582E43410F5837410F09005A3DD
:072A6C00E004F080B07F00E0
:012A73002240
:102C2D00C2EA75E280E4F5E39024477448F09024FD
:102C3D004C7400F0A37400F090244E7400F0A37453
:102C4D0040F0E4F5D4F5D675E28975D24075D8FF1C
:0F2C5D00FECFEECF122DEC0EEEB402F575E103B3
:012C6C002245
:102E4400C2D81222759005A2EFF0BF1502D2162047
:102E540016079005A2E0B41511C2167FC87E0012B1
:0A2E640030DE122A1C9005A2EFF0E8
:012E6E002241
:1030F500122C2DE49005DBF0C216FE7F3CFD7B0112
:073105007A1079000215CADF
:100003009005A3EBF0A3EAF0A3E9F09005A2EFF0CB
:100013009005A6E0FBA3E0FAA3E0F9E4121490EF45
:1000230075F01EA42402F582E43410F583E0641015
:1000330060037F01229005A2E0FF122D889005A2A4
:10004300E075F01EA42405F582E43410F583E090F6
:1000530005B1F0E4A3F09005B1E0FFA3E0FEC39F78
:1000630040030206EC9005A2E075F01EA4240AF5F5
:1000730082E43410F58375F006EE1215BEE06430A9
:10008300600302021D9005A2E0FE75F01EA4240881
:10009300F582E43410F583C083C0829005B2E0FD9D
:1000A300D082D08375F0061215BEE04490FFEE7542
:1000B300F01EA4240BF582E43410F58375F006EDED
:1000C3001215BEE060047DC080027D00121F9B906C
:1000D30005B0EFF060030206E39005B3E5D1F090BD
:1000E30005A6E0FBA3E0FAA3E0F9121428FF9005AC
:1000F300A3E0FBA3E0FAA3E0F98F827583007430D9
:100103001214A29005A6E0FBA3E0FAA3E0F97401A0
:1001130012146E900002E0B4390B9005DBE0640228
:10012300FFF0123063900002E0B4530B9005DBE064
:100133006401FFF0123063900002E0B4470B9005B6
:10014300DBE06404FFF012306390100AE0B4301D6A
:10015300901028E0B430169005A2E06401FF9005EA
:10016300B0F0122D889005DBE0FF123063E49005B8
:10017300B0F09005B3E0FF9005B0E0FE6F603F7410
:10018300002EF582E43400F583E0FF9005A6E0FB42
:10019300A3E0FAA3E0F9121428FD9005B0E02DFDC9
:1001A300E433FC9005A3E0FBA3E0FAA3E0F98D821E
:1001B3008C83EF1214A29005B0E004F080B4900594
:1001C300B3E0FF9005A6E0FBA3E0FAA3E0F9EF128A
:1001D300146E9005A2E0FF75F01EA4240BF582E4D3
:1001E3003410F583C083C0829005B2E0FED082D084
:1001F3008375F0061215BEE060047D0080027D0168
:10020300EF75F01EA4240BF582E43410F58375F02A
:1002130006EE1215BEEDF07F00229005A2E0FE75FA
:10022300F01EA4240AF582E43410F583C083C0824F
:100233009005B2E0FDD082D08375F0061215BEE0C2
:1002430064316003020583EE75F01EA42408F58271
:10025300E43410F58375F006ED1215BEE04490FF0B
:10026300EE75F01EA4240BF582E43410F58375F0CB
:1002730006ED1215BEE060047DC080027D00121FF2
:100283009B9005B0EFF060030206E39005A6E0FB48
:10029300A3E0FAA3E0F9121428FF9005A3E0FBA35F
:1002A300E0FAA3E0F98F8275830074311214A290EF
:1002B30005A6E0FBA3E0FAA3E0F9740112146E9023
:1002C30005A2E0FF75F01EA4240BF582E43410F5BB
:1002D30083C083C0829005B2E0FED082D08375F0E4
:1002E300061215BEE060047D0080027D01EF75F00B
:1002F3001EA4240BF582E43410F58375F006EE1288
:1003030015BEEDF09005A9E0FBA3E0FAA3E0F9EA3E
:10031300494B603EA3E0FBA3E0FAA3E0F9EA494BB3
:100323006030E4A3F0AFD1FE9005A9E0FBA3E0FAAF
:10033300A3E0F8CCEACCCDEBCD7B017A00790012B7
:1003430014029005ACE0FBA3E0FAA3E0F9E5D112B7
:1003530014909005A2E0FF75F005A424D0F582E483
:100363003405F583E02400F582E43400F583E0FDF1
:100373009005A6E0FBA3E0FAA3E0F9121428FE908F
:1003830005A3E0FBA3E0FAA3E0F98E82758300EDF9
:100393001214A2EF75F005A424CFF582E43405F519
:1003A30083E0640C60030204399005A2E075F00554
:1003B300A424D1F582E43405F583E02400F582E436
:1003C3003400F583E0FFEE2401FDE433FC9005A344
:1003D300E0FBA3E0FAA3E0F98D828C83EF1214A271
:1003E3009005A2E075F005A424D1F582E43405F567
:1003F30083E02401F582E43400F583E0540FFFEE3B
:100403002402FDE433FC8D82F583EF1214A29005E0
:10041300A2E075F005A424D1F582E43405F583E068
:100423002402F582E43400F583E054F0C454F08DE3
:10043300828C830204FC9005A2E0FF75F005A424DE
:10044300CFF582E43405F583E06410704FEF75F067
:1004530005A424D1F582E43405F583E02400F58274
:10046300E43400F583E0FFEE2401FDE433FC900562
:10047300A3E0FBA3E0FAA3E0F98D828C83EF1214CF
:10048300A29005A2E075F005A424D1F582E4340519
:10049300F583E02402F582E4340080509005A2E065
:1004A30075F005A424D1F582E43405F583E0240036
:1004B300F582E43400F583E0FFEE2401FDE433FC30
:1004C3009005A3E0FBA3E0FAA3E0F98D828C83EF10
:1004D3001214A29005A2E075F005A424D1F582E4DC
:1004E3003405F583E02401F582E43400F583E0FF6D
:1004F300EEF582758300A3A3EF1214A29005A2E088
:1005030075F005A424D3F582E43405F583E0FFC335
:1005130095D1503274002FF582E43400F583E0FF67
:100523009005A6E0FBA3E0FAA3E0F9121428240344
:10053300FDE433FC9005A3E0FBA3E0FAA3E0F98D0F
:10054300828C83EF80249005A6E0FBA3E0FAA3E06E
:10055300F91214282403FFE433FE9005A3E0FBA360
:10056300E0FAA3E0F98F828E83E41214A29005A629
:10057300E0FBA3E0FAA3E0F9740412146E7F0022F7
:100583009005A2E0FE75F01EA4240AF582E434105F
:10059300F583C083C0829005B2E0FDD082D083751D
:1005A300F0061215BEE0643260030206E3EE75F056
:1005B3001EA42408F582E43410F58375F006ED12C9
:1005C30015BEE04490FFEE75F01EA4240BF582E403
:1005D3003410F58375F006ED1215BEE060047DC09E
:1005E30080027D00E4FBFA121F9E9005B0EFF060DD
:1005F300030206E39005A6E0FBA3E0FAA3E0F912E9
:100603001428FF9005A3E0FBA3E0FAA3E0F98F828F
:1006130075830074321214A29005A6E0FBA3E0FADE
:10062300A3E0F9740112146EE49005AFF09005AFE6
:10063300E0FF65D1603F74002FF582E43400F58359
:10064300E0FF9005A6E0FBA3E0FAA3E0F91214286B
:10065300FD9005AFE02DFDE433FC9005A3E0FBA383
:10066300E0FAA3E0F98D828C83EF1214A29005AF18
:10067300E004F080B89005A2E0FF75F01EA4240BFF
:10068300F582E43410F583C083C0829005B2E0FEA6
:10069300D082D08375F0061215BEE060047D008021
:1006A300027D01EF75F01EA4240BF582E43410F5EE
:1006B3008375F006EE1215BEEDF09005A6E0FBA3E0
:1006C300E0FAA3E0F9121428B403129005A3E0FBA7
:1006D300A3E0FAA3E0F9900003E41214A27F00223E
:0B06E3009005B2E004F00200597F0314
:0106EE0022E9
:0B23DA009005A3EBF0A3EAF0A3E9F0EC
:1023E500EF75F01EA42402F582E43410F583E06451
:1023F500107076FEEF75F01EA42405F582E4341006
:10240500F583E0FDEEC39D506F9005A3E0FBA3E0CF
:10241500FAA3E0F975F002EEA4F58285F083EE12D9
:1024250014A2EF75F01EA4240AF582E43410F58396
:1024350075F006EE1215BEE0FD9005A3E0FBA3E0E6
:10244500FAA3E0F975F002EEA42401F582E435F073
:10245500F583ED1214A29005A6E0FBA3E0FAA3E034
:10246500F9740212146E0E808B9005A6E0FBA3E0B2
:08247500FAA3E0F9E41214904F
:01247D00223C
:102BEB00EF131313541FFEEF5407FF74602EF5827F
:102BFB00E43405F583E022FBE4FCED5BFD74017E20
:102C0B0000A8070822FFEE5CFEEF5D4E24FF227446
:102C1B00812EF582E43405F583E0227B017A057978
:022C2B00602225
:062889008B3C8A3D893EF4
:10288F00E478817C057D01122C26FE7F2112140233
:10289F00AB3CAA3DA93E121428900580F07E007F24
:1028AF00217D00122C261215CA7F02AB3CAA3DA92E
:0C28BF003E8F82758300121441FE6023DE
:1028CB00131313541FF53FEE5407F5407460253F67
:1028DB00122BF9FEAD407401A805088002C333D852
:0328EB00FC4EF0B0
:0428EE000FBF08C848
:0128F20022C3
:102F5B00EF131313541FFEEF5407FF122C1AF4FD3B
:102F6B00122BF6122C028005C333CE33CED8F912B6
:022F7B002C1018
:012F7D002231
:1030AE00122BEBF4FD122C1A122C028005C333CE18
:0730BE0033CED8F9122C10EB
:0130C50022E8
:10313A00122BEBFD7C00122C088005C333CE33CE54
:05314A00D8F9122C1061
:01314F00225D
:0432DF00122C262265
:10318C0005A105A105A105A105A105A105A105A103
:03319C0005A12268
:1031D20075A15575A1AA53B3E043B30675A1FF22A9
:10316400EF4E600F12318C05A112318CEF1F70F0FD
:043174001E80ED22AA
:10310C00AD07AC06ED4C600E7FE87E03123164ED2A
:07311C001D70F11C80EE2282
:103027000704161A2C280D0E4F5051526258595A40
:103037000704161A2C280D0E4F5051526258595A30
:102D6300010800010900010B00010D00C100C102AF
:102D7300C104C107C109C101C103C105C108C10A19
:022D8300C10687
:10309500EF93F582758300021441C200C207C2098D
:0930A500C201C208C20AC20622DF
:0532C600A2A592002208
:093178001232C612328F123260CD
:0B318100300006200103D38001C322B0
:0B328400200006300103D38001C322AC
:0532CB00A200920122A7
:0B328F00E5C1C413135403139207227F
:0B329A00300706200803D38001C32288
:0B32A500200706300803D38001C3227D
:0532D000A20792082294
:0C326000E5C1C41313135401139209229A
:0B32B000300906200A03D38001C3226E
:0B32BB00200906300A03D38001C32263
:0532D500A209920A228B
:102EC100E4FF1232DF8B3C8A3D893EE4F50AFFAB19
:102ED1003CAA3DA93E903027123095420AE50A25C9
:072EE100E0F50A0FBF08E84D
:012EE80022C7
:102EE900E4FF1232DF8B3C8A3D893EE4F50CFFABEF
:102EF9003CAA3DA93E90302F123095420CE50C2595
:072F0900E0F50C0FBF08E822
:012F1000229E
:102E6F00E4FF1232DF8B3C8A3D893EE4F50EFFAB67
:102E7F003CAA3DA93EEF903037123096420EE50E38
:082E8F0025E0F50E0FBF08E776
:012E97002218
:102E9800E4FF1232DF8B3C8A3D893EE4F50FFFAB3D
:102EA8003CAA3DA93EEF90303F123096420FE50F05
:082EB80025E0F50F0FBF08E74C
:012EC00022EF
:10232F00E4F53C300B25F53C7F011223AB40F9E47B
:10233F00F53C12239A40FBE4F53C7F031223AB409C
:10234F00F9E4F53C1223BA40FB8024E4F53C7F010D
:10235F001223CB40F9E4F53C12239A40FBE4F53C01
:10236F007F031223CB40F9E4F53C1223BA40FBC2A2
:10237F000C7F01122D1FC20C7F02122D1FC20C7F6A
:0B238F0003122D1FC20C7F04022D1F43
:10239A00AB3CE4FD7F02121E96053CE53CC3940863
:1023AA0022AB3C7D03121E96053CE53CC3940822F1
:1023BA00C20CC20DAF3C122C6D053CE53CC394081F
:1023CA0022AB3CE4FD121E96053CE53CC394082270
:0532DA00C20B02232FCE
:0132E30022C8
:0E321E00D20B12232FE4F508F50912309F227F
:102A7400122EC1122EE91231785002D206300637D6
:102A84001232845010850A08850C09E5081392B2A5
:102A9400E50913929212329A5009E50825E0F508E7
:102AA4001392B21232A51232B05009E50925E0F5AD
:102AB400091392921232BB1232CB1232D00232D5A7
:0E322C00D20B12232FE4F50BF50D12309F226A
:102AC400122E6F122E981231785002D20630063729
:102AD4001232845010850E0B850F0DE50B1392B442
:102AE400E50D13929412329A5009E50B25E0F50B8B
:102AF4001392B41232A51232B05009E50D25E0F557
:102B04000D1392941232BB1232CB1232D00232D550
:1031C10042C67401A8030822F452C67401A8030878
:0131D10022DB
:102D1F00EFD39404502F200C17EFB4040453C7EFD4
:102D2F00227410A807088002C333D8FCF452C622BD
:102D3F00EFB4040443C710227410A807088002C31D
:062D4F0033D8FC42C6224D
:021E9600A9079A
:101E9800E9C394044003021F9AEDB407004003020B
:101EA8001F78901EB1F8282873021EC6021EDC0295
:101EB8001EF2021F0B021F28021F45021F5E74013B
:101EC800A801088002C333D8FC1231C98002C33389
:101ED800D8FC80437401A801088002C333D8FC12DF
:101EE80031C98002C333D8FC80677401A801088017
:101EF80002C333D8FC1231C98002C333D8FCF44E74
:101F0800FE806D7401A801088002C333D8FC123129
:101F1800C18002C333D8FCF4FF5EFEEC5FFC805046
:101F28007401A801088002C333D8FC1231C18002B1
:101F3800C333D8FCFF4EFEEFF45CFC80337401A879
:101F480001088002C333D8FC1231C18002C333D8E0
:101F5800FCFFF45E80167401A801088002C333D820
:101F6800FC1231C18002C333D8FCFF4EFEEC4FFC9B
:101F7800E970058EC48CC522E9B401058EBA8CBB04
:101F880022E9B402058EBC8CBD22E9B403048EBEDE
:021F98008CBFFC
:011F9A002224
:102C6D00300C0F7401A807088002C333D8FC42C290
:102C7D00800E7401A807088002C333D8FCF452C239
:102C8D00300D0E7401A807088002C333D8FC42C36F
:102C9D00227401A807088002C333D8FCF452C32262
:102B1400537461727420636865636B696E672073B4
:102B24006C61766573210D0A00536C61766520250E
:102B3400642069732076616C69642E0D0A0046690D
:102B44006E697368656420636865636B696E67208A
:0A2B5400736C61766573210D0A00B1
:102FA100E0FBA3E475F0011214DAA9F0FA22AF01F3
:102FB100EF25E0F0EBD394022274FFF5F01214C474
:032FC10045F022B6
:07326C00D283123273D282FB
:043273007F40DFFEBB
:013277002234
:103047007B027D05E4FF121E967B037D05E4FF12DC
:0C3057001E96D282123273D283023273B2
:0D32470012326CC283123273C282023273E3
:02312300AE07F5
:103125007D08EE33928312326EC282123273EE251F
:04313500E0FEDDEEED
:013139002273
:102FC4007D08D283123273D2821232733082FDEEC4
:102FD40025E0FEA283E4334EFEC282123273DDE7A3
:012FE400FFED
:012FE50022C9
:072F7E00F583E0FF1231238F
:102F85007DFF7C0012326C30830BED1D70011CED52
:0B2F95004C70F4D322C282123273C3CE
:012FA000220E
:0C327800A218928312326EC282023273DE
:1030C6007D017C00C28312326ED283123273ED1DF3
:0730D60070011C144C70F79F
:0130DD0022D0
:102B5E00E4900628F07BFF7A2B791412103812308D
:012B6E00471F
:102B6F00123247900628122F8092192019137BFFDB
:102B7F007A2B792DE0FF9005A5E4F0A3EFF012106A
:0D2B8F00381230C6900628E004F0E070D344
:092B9C007BFF7A2B79420210380C
:02272500A90702
:102727009005E3E07002A3E07002FF229005E51236
:102737002FAF40027B02EB24FE600A04700FED907E
:1027470005E6F08008EC9005E6F0EDA3F00B1232F9
:1027570047E4FAEAC39B501674E52AF582E4340588
:10276700122F7E50061230C67F01220A80E590059F
:10277700E0122FA1121428122F8140089005E312AE
:102787002FBA70EA1230C69005E3E07002A3E0703A
:0527970002FF227FFF9C
:01279C00221A
:02259D00A9078C
:10259F009005EFE07002A3E07002FF229005F112A8
:1025AF002FAF40027B02EB602FB40107ED9005F2D5
:1025BF00F08008EC9005F2F0EDA3F00B123247E437
:1025CF00FAEAC39B501274F12AF582E43405122FF4
:1025DF007E500280100A80E91232479005F1E00424
:1025EF00122F8150061230C67F0122122FC4900580
:1025FF00EC122FA1EF1214909005EF122FBA700763
:10260F00D2181232788007C21812327880DD123059
:03261F00C67F0073
:012622002295
:022D8500C1206B
:101D64009005F9E09005F875F080A4FFE07C002F61
:101D7400FFEC35F0FE74402FF58274013EF58322AA
:101D8400E0FD900604E025E02440F582E43405F506
:101D940083E0FEA3E0FF900608E0FCC322F0900578
:101DA400E07401F0A37406F07425A3F0A3E4F0A397
:101DB40004F0E4FBFDFC7F3C22FF3395E0FEEF25BD
:101DC400E0FFEE33FEE0FD3395E0FCC3EF9DEC64F1
:101DD40080F8EE64809822E0FF900604E025E02479
:101DE40040F582E43405F583A3E0FE900608E0FDA7
:101DF400EEA8050822900607E02480F0900606E08D
:101E04003400F0E0FEA3E0FFC3EE6480948422E09B
:101E1400FF9005FDE0FEC374079EFE74FFA806084C
:101E240022900606E0FEA3E0244022E075F080A4A0
:101E3400FF9005F8E07C002FFFEC35F0FE74402F96
:101E440022FF7E00900602E0FD3395E0FCED2F2298
:101E540074089CFCEFA8040822E0FF900627E054D5
:101E640007FE7401A80608229005FBE0FF9005F91F
:101E7400E0FE22FFE0FEC3EF9E900618F022E0FF92
:101E8400900618E02FF0E0229005F6E0FF9005F4AC
:021E9400E0224A
:0F31E200E4FFE4FE000EEEB4FFFA0FEFB4FFF3CC
:0131F10022BB
:052BA500900622EFF094
:102BAA00123247E4900623F07B019005E004F0A37B
:102BBA007406F0A37423F0A3E4F0A304F0E41BFD6D
:102BCA00FC7F3C122725900622E0A3F09005E074D2
:102BDA0001F0A37406F07423121DAE1227250230E9
:012BEA00C624
:052FE600900624EFF04D
:102FEB001232479006257440121DA1122725900618
:0C2FFB0024E0A3121DA11227250230C6FD
:1026A5001231E27FAE122BA57FD5122BA57F8012AA
:1026B5002BA57FA8122BA57F3F122BA57FD3122B0D
:1026C500A5E4FF122BA57F40122BA57F8D122BA50C
:1026D5007F14122BA57F20122BA5E4FF122BA57FBB
:1026E500A1122BA57FC8122BA57FDA122BA57F126D
:1026F500122BA57F81122BA57FCF122BA57FD91277
:102705002BA57FF1122BA57FDB122BA57F40122B6A
:10271500A57FA4122BA57FA6122BA57FAF022BA503
:1029BC00E490061DF0A3F0A3F090061EF0A3F0E443
:1029CC0090061DF090061DE0FDC394805024A3E0FA
:1029DC00FEA3E07807C333CE33CED8F97C002DFFAD
:1029EC00EC3E121D78E0FF122FE690061DE004F07D
:1029FC0080D290061FE004F0700690061EE004F0F2
:0F2A0C00C390061FE0940890061EE0940040B0AF
:012A1B002298
:0F31F2007E047F007D007B017A0179400215CABF
:101A1400900600ECF0A3EDF09005FFEFF0900602C5
:021A2400EBF0E5
:101A2600A3E0FE7803A2E713D8FB900605F0EFF4D7
:101A360004FFC36480F8EB6480985005900602EFBB
:101A4600F0900602E0D3648094FF4003021BBC9032
:101A560005FFE0F404FFC3121DD35005900603EF03
:101A6600F0900603E0D3648094BF4003021BBCE4FD
:101A7600900604F09005FFE0FF900604E0FEC39F89
:101A86004003021BBCEE121E45FFEE3CFEC3648003
:101A960094805003021BB3C3EF9480EE648094805D
:051AA6004003021BB328
:101AAB00900604E0121E45FDEE3CFC900605E0FF9F
:101ABB003395E0FEEF7807C333CE33CED8F92DFF45
:101ACB00EC3E900606F0FCA3EFF0900603E0540703
:101ADB00900608F0C3EC648094804033301A1612E1
:101AEB001E25121D7CC083C082121DDB8002C333F6
:101AFB00D8FC4F8015121E25121D7CC083C082128C
:101B0B001DDB8002C333D8FCF45FD082D083F0128C
:101B1B001DF94003021BB3C3EE64809480403C303C
:101B2B001A19121D79C083C082121D84121E548093
:101B3B0005CEC313CE13D8F94D801B121E25121DD3
:101B4B007CC083C082121D84121E548005CEC31329
:101B5B00CE13D8F9F45DD082D083F0121DF9504822
:101B6B00C3EE648094804040301A1B121D79C083F1
:101B7B00C082121D847410121E568005CEC313CE64
:101B8B0013D8F94D801D121E25121D7CC083C082F7
:101B9B00121D847410121E568005CEC313CE13D89B
:081BAB00F9F45DD082D083F053
:091BB300900604E004F0021A7A25
:011BBC002206
:0F320100900609EFF0A3EBF0A3EAF0A3E9F022A7
:10295B00900627EDF0900626EFF0D3947F50519020
:10296B000627E0FFD3943F5047301C1CEF13131383
:10297B00541F900626121D6BC083C082121E5D80F1
:10298B0002C333D8FC4F8023900627E01313135454
:10299B001F75F080A4FF900626121D70C083C082A5
:1029AB00121E5D8002C333D8FCF45FD082D083F05B
:0129BB0022F9
:07209100AC07900613EBF011
:10209800C39C900615F0FB900614E0C39D900616AD
:1020A800F0D3EB6480948040047F0180027F00EFCE
:1020B80025E014900617F0900616E0FFD36480948C
:1020C8008040047E0180027E00EE25E014FBAE0411
:1020D800AA06AE05A906E4900618F0900615E0FEDB
:1020E800D36480948040028007900615E0F404FED3
:1020F800900615EEF0D3EF648094804005A3E0FFCE
:102108008007900616E0F404FF900616EFF090069C
:1021180015E0FED3EF121DD3402D900613E06A6040
:102128004F122179900616121E82900615121DBDB7
:10213800400DEB29F9900618E0900615121E7790CD
:102148000617E02AFA80D3900614E069602212216B
:1021580079900615121E82900616121DBD400CA31A
:10216800E02AFAA3E0900616121E77EB29F980D729
:0D21780022AF02AD01A21D921C12295B22B4
:0D184A009005F5EDF0A3EBF09005F4EFF044
:10185700D3947F4003021A13121E8CFD2FFFE4332B
:10186700FED3EF9480EE64809480400774809D904F
:1018770005F6F09005F5E0FFD3943F4003021A13F5
:101887009005F7E02FFFE433FED3EF9440EE64803A
:101897009480400C9005F5E0FF74409F9005F7F0A9
:1018A7009005F4E09005F8F0121E8C2F14FF9005B8
:0918B700F8E0D39F4003021A136C
:1018C0009005F5E0FF131313541F9005FAF0FA90FA
:1018D00005F7E0FBFDEF2DFFE433FEEF7803CEA22A
:1018E000E713CE13D8F8FF9005FBF09005F5E0FE66
:1018F00054079005FCF0EB2E145407A3F0EA6F7028
:011900006581
:10190100A3F09005FCE09005F9F09005FD121E6F23
:10191100D39F501D9005FEE0FF7401A806088002C8
:10192100C333D8FC4F9005FEF09005F9E004F08038
:10193100D99005FA121E2F301E12121D7CC083C0D1
:1019410082E0FF9005FEE0FEEF4E8011121D7CC08B
:1019510083C082E0FF9005FEE0F4FEEF5ED082D00E
:0219610083F011
:10196300021A0A9005FAE09005F9F0121E6CD39F53
:101973004003021A0AA3E0FFEE6F7036301E1AEE20
:10198300121D68C083C082E0FF9005FCE0121E1E9A
:101993008002C333D8FC0219CF121D64C083C082F6
:1019A300E0FF9005FCE0121E1E8002C333D8FC0248
:1019B30019E2121E6C6F7030301E14EE121D68C0D7
:1019C30083C082121E138002C313D8FC4F801212ED
:1019D3001D64C083C082121E138002C313D8FCF49B
:1019E3005FD082D083F080169005F9121E2F301E2F
:1019F30008121D7C74FFF08005121D7CE4F0900535
:071A0300F9E004F002196E86
:091A0A009005F8E004F00218AFA9
:011A130022B0
:09218500900619EFF0A905AE0364
:10218E00E4FBFAEEFDA3E4F0A3EDF0FFC374019FB0
:10219E00A3F090061AE0FCA3E0FDD39BEA6480F85E
:1021AE00EC6480984078900619E02BFFED122261C6
:1021BE002F122248900619E0C39BFFA3A3E0122220
:1021CE0061C39F122248900619E0C39B12222DC3B1
:1021DE009F122254900619E02B12222D2F122254F8
:1021EE0090061CE0C364809480500BEB25E0240322
:1021FE00FFE02FF0802090061AA3E0FFC3EB9F258F
:10220E00E02405FFA3E02FF090061BE024FFF090E2
:0E221E00061AE034FFF00BBB00010A0221A0FB
:10222C0022FFA3A3E0FEC3E99EFDA21F921C12296C
:10223C005B90061AA3E0FF900619E022FFEB29FD44
:10224C00A21F921C12295B22FFC3E99BFDA21F92C5
:10225C001C12295B2229FDA21F921C12295B9006DD
:09226C001AA3E0FF900619E0221C
:03000000022511C5
:0C251100787FE4F6D8FD75814002255863
:10133200E709F608DFFA8046E709F208DFFA803E9D
:1013420088828C83E709F0A3DFFA8032E309F6088A
:10135200DFFA8078E309F208DFFA807088828C83F2
:10136200E309F0A3DFFA806489828A83E0A3F608A6
:10137200DFFA805889828A83E0A3F208DFFA804C80
:1013820080D280FA80C680D4806980F28033801057
:1013920080A680EA809A80A880DA80E280CA8033C0
:1013A20089828A83ECFAE493A3C8C582C8CCC58338
:1013B200CCF0A3C8C582C8CCC583CCDFE9DEE78008
:1013C2000D89828A83E493A3F608DFF9ECFAA9F087
:1013D200EDFB2289828A83ECFAE0A3C8C582C8CCDD
:1013E200C583CCF0A3C8C582C8CCC583CCDFEADEF6
:1013F200E880DB89828A83E493A3F208DFF980CC58
:1014020088F0EF60010E4E60C388F0ED2402B40450
:101412000050B9F582EB2402B4040050AF232345F7
:0614220082239013827387
:10142800BB010689828A83E0225002E722BBFE02C2
:09143800E32289828A83E49322F5
:10144100BB010CE58229F582E5833AF583E0225060
:1014510006E92582F8E622BBFE06E92582F8E222AA
:0D146100E58229F582E5833AF583E49322C4
:10146E00BB010989828A83F8E028F022500327F70E
:10147E0022BBFE05F8E328F3228A838982F8E493DF
:02148E00282212
:10149000BB010689828A83F0225002F722BBFE013B
:0214A000F32235
:1014A200F8BB010DE58229F582E5833AF583E8F080
:1014B200225006E92582C8F622BBFE05E92582C82C
:0214C200F22214
:1014C400C5F0F8A3E028F0C5F0F8E58215827002B3
:0614D4001583E038F02250
:1014DA00A3F8E0C5F025F0F0E582158270021583C5
:0614EA00E0C838F0E82222
:1014F00075F008758200EF2FFFEE33FECD33CDCCB3
:1015000033CCC58233C5829BED9AEC99E582984035
:101510000CF582EE9BFEED9AFDEC99FC0FD5F0D612
:10152000E4CEFBE4CDFAE4CCF9A88222B800C1B93C
:101530000059BA002DEC8BF084CFCECDFCE5F0CB7A
:10154000F97818EF2FFFEE33FEED33FDEC33FCEBB3
:1015500033FB10D703994004EB99FB0FD8E5E4F96E
:10156000FA227818EF2FFFEE33FEED33FDEC33FC5B
:10157000C933C910D7059BE99A4007EC9BFCE99A4F
:10158000F90FD8E0E4C9FAE4CCFB2275F010EF2F94
:10159000FFEE33FEED33FDCC33CCC833C810D70794
:1015A0009BEC9AE899400AED9BFDEC9AFCE899F8CF
:0E15B0000FD5F0DAE4CDFBE4CCFAE4C8F92262
:0C15BE00A42582F582E5F03583F5832238
:100FCD00E53C24A5F582E43405F583E0053C22904B
:100FDD0005A23012039005A5E475F0011215F60275
:100FED001428200BE97F2ED20B8018EF540F24907C
:100FFD00D43440D4FF300F0BEF24BFB41A0050038C
:10100D002461FFE53D6002153D0540E54070020598
:10101D003F30120E9005A2E475F0011215F6EF02A5
:10102D001490022F117403D2128003E4C212F53C06
:10103D009005A212160DE4F53DF53FF540E53D6036
:10104D00077F2012101080F5753EFFC20CC20BC237
:10105D000DC20EC210C211C213120FDCFF700D3083
:10106D0012057F00121021AF40AE3F22B4255FC2A2
:10107D00D5C20F120FDCFF24D0B40A00501A75F040
:10108D000A783D30D50508B6FF0106C6A426F62020
:10109D00D5047002D20E80D924CFB41A00EF5004BB
:1010AD00C2E5D20F021222D20C80C6D20B80C0D262
:1010BD000D80BCD2D580BAD21080B47F2012101012
:1010CD00200D077401B53D0040F1120FCDFF121038
:1010DD001002104AD213D2118095120FCDFB120FB0
:1010ED00CDFA120FCDF94A4B700679F37A127BFFC8
:1010FD00200D2EE53D602A7E008E82758300121430
:10110D004160060EEE653E70F0C2D5EBC0E0EAC060
:10111D00E0E9C0E0EE121269D0E0F9D0E0FAD0E0DB
:10112D00FB121428FF60AAEBC0E0EAC0E0E9C0E0C2
:10113D00121010D0E02401F9D0E03400FAD0E0FB19
:10114D00E53E0460DCD53ED980877BFF7A12796558
:10115D00D20D809C791080027908C211C2138008CB
:10116D00D2D5790A8004790AC2D5E53E047002F51C
:10117D003EE4FAFDFEFF120FCDFC7B08200C13128E
:10118D000FCDFD7B10300B0A120FCDFE120FCDFFD0
:10119D007B20EC3382D592D55013C3E4300B069FE0
:1011AD00FFE49EFEE4200C039DFDE49CFCE4CBF8E3
:1011BD00C20CEC700CCFCECDCCE824F8F870F380D7
:1011CD0017C3EF33FFEE33FEED33FDEC33FCEB33A2
:1011DD00FB994002FB0FD8E9EB300C05F8D0E0C4C9
:1011ED0048B20CC0E00AEC4D4E4F78207B0070C227
:1011FD00EAB53E0040BCC0E012126BD0F0D0E0204A
:10120D000C04C4C0E0C4B20CC0F0120FF9D0F0D57C
:10121D00F0EB02104A12161610E75311615810B870
:10122D004C10B44211654F116D44116D4910CD43F1
:08123D001173551157461157BA
:101245004511574713135010BC2D10C02E10E32B1A
:1012550010C42310E12012FC2A107C48000010DB8A
:101265003F3F3F00790AA2D5200E14301009B9106E
:10127500020404B9080104A2D5201102500104207A
:101285000D68920DB53D005034C0E07F20300E1939
:101295007F30A20D72117210500F1212C2C20DC210
:1012A50011C210C2137F30800F301003E9C0E01265
:1012B5001010301003D0E0F9D0E0B53DCC30101758
:1012C5007F30B9100C1210107F58300F077F7880CF
:1012D50003B90803121010300D057F2D0210107F81
:1012E500202013F87F2B2011F322920D80CF286E3A
:1012F500756C6C2900D20C120FCD300CF8C20C782D
:101305003D30D50108F602107C2D50434958120F87
:10131500CD2403B405004001E490130E931210018F
:0D132500743A121001D20E753D04021161E0
:1015CA00EF4E6012EF60010EEDBB010B89828A8338
:1015DA00F0A3DFFCDEFA2289F05007F709DFFCA945
:0C15EA00F022BBFEFCF309DFFCA9F0229C
:10251D00021BBDE493A3F8E493A34003F68001F2FC
:10252D0008DFF48029E493A3F85407240CC8C333BF
:10253D00C4540F4420C8834004F456800146F6DF8E
:10254D00E4800B0102040810204080902D55E47E9C
:10255D00019360BCA3FF543F30E509541FFEE49383
:10256D00A360010ECF54C025E060A840B8E493A34A
:10257D00FAE493A3F8E493A3C8C582C8CAC583CA75
:10258D00F0A3C8C582C8CAC583CADFE9DEE780BE2D
:012D8700004B
:1015F600F8E0FBA3A3E0F925F0F0E582158270027E
:071606001583E0FA38F02221
:09160D00EBF0A3EAF0A3E9F022DE
:10161600D083D082F8E4937012740193700DA3A363
:1016260093F8740193F5828883E473740293686077
:06163600EFA3A3A380DF77
:102F1100EFB40A07740D122F1C740A309811A89986
:102F2100B8130CC2983098FDA899C298B811F63020
:072F310099FDC299F59922F8
:00000001FF
