:10263D00457870496E7465726661636520696E696F
:10264D007469616C697A65642E0A00554152542093
:10265D00696E697469616C697A65642E0A004B4D07
:10266D004C696220696E697469616C697A65642E62
:10267D000A002530325820000A0069666320253093
:10268D003278206B6579626F6172640A00696663E6
:10269D002025303278206D6F7573650A0069666389
:1026AD002025303278206D6F7573652D62696F73DB
:0226BD000A0011
:0A2C41004205DC0000017B00C19693
:102F690005A105A105A105A105A105A105A105A128
:102F790005A122A3F07B007A00793022743125253E
:032F8900F8E62245
:10311F00EF4E600F122F6905A1122F69EF1F70F08C
:04312F001E80ED22EF
:1030AD00AD07AC06ED4C600E7FE87E0312311FEDCF
:0730BD001D70F11C80EE22E2
:10181E00C20C1221B97BFF7A26793D121038123193
:10182E00A17F147E001230DB1227B61231F87BFF37
:10183E007A2679581210381230C47BFF7A26796BCB
:03184E001210383D
:10185100122E759005A6E4F0A37400F0A3743BF07A
:10186100A3E4F0A37400F0A37426F0A3E4F0A3743E
:1018710000F0743A122F7CE4FF1200038F25E52556
:10188100600302194EF525E525C3953B500B7A26D9
:10189100797F1219BB052580EE7BFF7A26798512A7
:1018A1001038122F7E12289F7F05123109C0D07F78
:1018B10001123109D0F072F7C0D07F04123109C092
:1018C100D0E4FF123109D0F072F7D0F082F7C0D026
:1018D1007F06123109C0D07F02123109D0F072F7B0
:1018E100D0F082F750107F29122F8C5004057BD243
:1018F100167F2912307D30162BE57B14601214609F
:1019010014146016146018240470171232D3801254
:101911001231CE800D1231DC800812329A8003120E
:1019210032A3C216E57B14601214601414601614FD
:101931006018240470171232DF80121229D0800D32
:10194100122A2080081224AF80031225349005DC6E
:10195100E07002A3E0705274FF9005DCF0A3F090F8
:1019610005A6E4F0A37400F0743B122F7CE4FF128F
:101971002264E4F525E525C3953B502D122F85B44E
:1019810030077A2679871219BB122F85B431077A6D
:1019910026799A1219D0122F85B432077A2679AA9C
:1019A1001219D00525052580CC9005DDE024FFF036
:0719B1009005DCE034FFF0BB
:1019B8000218517BFF74302525F8E6FF9005A5E451
:1019C800F0A3EFF0121038227BFF74302525F8E6DB
:0D19D800FF9005A5E4F0A3EFF012103822F7
:1027B600C29FD29EC29DC2CDC2CC438780E4753FE4
:1027C60008753E02F53DF53C7B0AFAF9F8AF3FAED7
:1027D6003EAD3DAC3C121500AF038F40AF3FAE3E61
:1027E600AD3DAC3CE47B0AFAF9F81215008F3F8E3A
:1027F6003E8D3D8C3CE540C394054011EF2401F528
:102806003FE43EF53EE43DF53DE43CF53CE58954C8
:102816000F4420F58943C9A0E53FF404F58DD28E17
:04282600D299D29CD5
:01282A00228B
:0D31F80043C60143C40843C50C43CE10225A
:102910008006000100001200800600020000040092
:102920000005020000000000000900000000000097
:102930000201000000000000A006002900000900BC
:102940008106002200004100210B00000000000071
:10295000210A000000000000210A007D00000000A4
:10296000210A0016000000002109000200000100F9
:0829700081060022000088002E
:042C4B004105DA0065
:102E1D00EF75F01EA42402F582E43410F583E4F07E
:102E2D00EF75F01EA42403F582E43410F583E4F06D
:0C2E3D00EFB40104E4F5E522E4F5E42222
:1020FF00E49005BDF0E5DB30E32C901002E06005C5
:10210F00E5E420E047E4FF122E1D9010027402F068
:10211F00E5DB30E20280027F01901004EFF09005C2
:10212F00BD7415F08026901002E0C39402401DE4A8
:10213F00FF122E1D9005BDE070037416F07E007F18
:10214F001E7D007B017A10790012159EE5DB30E7CA
:10215F002D901020E06005E5E520E0487F01122E6C
:10216F001D9010207402F0E5DB30E2031F80027F28
:10217F0001901022EFF09005BD7415F0802690109D
:10218F0020E0C39402401D7F01122E1D9005BDE07B
:10219F0070037416F07E007F1E7D007B017A10792C
:0921AF001E12159E9005BDE0FF13
:0121B8002204
:0C321200EF547FFFE5E354804FF5E3220A
:0E31C000EF600753E2BF53D27F2243E240226A
:102CB600CEEFCE9005D97408F0E4FF123212EEB4CE
:102CC600010F43E5027F0F7E001230AD53E5FD8014
:102CD6000D43E4027F0F7E001230AD53E4FD7FFA10
:082CE6007E0012311FC2D8224A
:10273F00EF75F01EA42402F582E43410F583E0C394
:10274F0094025011EF75F01EA42402F582E43410A8
:10275F00F5837402F0EF64017025E5DB30E745E5A2
:10276F00E520E015E5DB30E6047F0080027F019075
:10277F001022EFF0700343E50443E5017F0022E5EB
:10278F00DB30E320E5E420E015E5DB30E2047F00F9
:10279F0080027F01901004EFF0700343E40443E4E0
:0727AF00017F00227F1622CA
:102D5A00CEEFCEEE75F01EA42403F582E43410F50E
:102D6A0083E0FF123212EE75F01EA42404F582E409
:102D7A003410F583E0FF1231C0EE6003D38001C343
:032D8A009218227A
:031DA900E4FBFA5E
:0B1DAC009005BAEFF0A3EAF0A3EBF003
:101DB700CFEDCF8FD68FD4E4F5DD9005BAE0F5D51A
:101DC700C2D97F207E0320D909EF1F70011EEF4E75
:101DD70070F4E4F5D520D9037FFE2230D836C2D877
:101DE7001220FFEFB41502D217A218E433901002A5
:101DF70075F01E121592E475F01EA42583F583E095
:101E0700FE70037F1622EEB402037F15227FC87E81
:101E17000012311F30D96730DE037F0022E5D95425
:101E27000FFFB40E028043EFB40A299005BBE0FC14
:101E3700A3E0FD4C7003EF803EC3ED94FFEC94FFED
:101E4700500E9005BCE024FFF09005BBE034FFF096
:101E570015DD802D9005BAE0C4540F24F7600D24DA
:101E6700FC6004240C7014EF6017800BEFB40304BC
:101E7700640B600DEF600A4420FF227FFE2275D8B5
:101E8700FF7F0F7E0012311F05DDAFDDEFC3940A20
:071E97005003021DC17F2072
:011E9E002221
:0B161000EBF07B007A007900E4FFFEA5
:10161B009005B5EEF0A3EFF0A3EBF0A3EAF0A3E98E
:10162B00F07FC87E0012311F9005B7E0FBA3E0FAF4
:10163B00A3E0F9EA494B6004E412149075D7087BD8
:10164B00107A27E4FD7FD0121DAC9005CAEFF06035
:10165B0003E0FF2275D6D075D4D075D70190004723
:10166B00E060047FFF8005900046E0FF9005CBEF24
:10167B00F070030217EB9005B5E07002A3E0700366
:10168B000217EB900040E020E70302174C9005CBCC
:10169B00E070030217467FC87E0012311F7B107A61
:1016AB0027ADD47F90121DAC9005CAEFF0E0FF6020
:1016BB0001229005CBE0FFE5D1C39F5007AED1CF00
:1016CB00EECF80009005CCEFF09005CBE0FFA3E0D0
:1016DB00FEC3EF9E9005CBF09005B7E0FBA3E0FABD
:1016EB00A3E0F9EA494B6004EE12146EE49005CDC9
:1016FB00F09005CCE0FFA3E0FE6F602F74002EF599
:10170B0082E43400F583E0FF9005B5E0FCA3E0F53F
:10171B00828C83EFF09005B6E004F070069005B56F
:10172B00E004F09005CDE004F080C6E5D1600C90AC
:10173B0005D9E01455D17003021698E4F5D70217BA
:10174B00EB9005CBE070030217EB7FC87E001231E4
:10175B001F9005D9E0FF9005CBE0FEC39F400280B0
:10176B0003CFEECF8FD7E49005CEF09005CEE0FF00
:10177B0065D7602F9005B5E0FCA3E0F5828C83E084
:10178B00FE74402FF582E43400F583EEF09005B63D
:10179B00E004F070069005B5E004F09005CEE0048F
:1017AB00F080C87B107A27ADD67F10121DAC900548
:1017BB00CAEFF0E0FF6001229005CBE0C395D7F0B4
:1017CB009005B7E0FBA3E0FAA3E0F9EA494B7003FD
:1017DB0002174C9005B7A3A3E5D712146E02174C52
:1017EB007FC87E0012311FE5D760047F9080027F97
:1017FB00107B107A277DC0121DAC9005CAEFF060EC
:10180B0003E0FF22E5D77002FF22E5D17002FF2231
:02181B007F1735
:01181D0022A8
:102FF500E4FD8F828E83E493FC74402DF582E434E6
:0F30050000F583ECF00FBF00010E0DEDB408E3F2
:013014002299
:102C7C009005D97408F07E297F10122FF57E007F05
:102C8C00407B017A0579AA12161BEF600122900095
:102C9C0047E09005D9F0902916E493FF9005AAE03F
:092CAC00C39F50037F17227F0033
:012CB50022FC
:102308007E297F18122FF57E007F407B017A0579A0
:10231800AA12161BEF60012290291EE493FDC390B8
:1023280005ABE09D9005AAE0940050037F1722902A
:102338000042E0FD9005AAE4F0A3EDF0D3E094405C
:102348009005AAE0940040037F17227E297F181287
:102358002FF59005AAA3E0900046F07E007F407B11
:10236800017A0579AA12161BEF60012290291EE452
:1023780093FF9005AAE0FCA3E0FDC39FEC94004006
:102388000C900042E0FFED9FEC940050037F172271
:022398007F00C4
:01239A002220
:052E49009005AAEFF066
:102E4E007E297F20122FF59005AAE09000421216DF
:102E5E0011EF6001229005AAE0FF1232127F0A7E66
:062E6E00001230AD7F00F0
:012E7400223B
:10316E00CBEFCB7E297F28122FF59000421216103E
:01317E00222E
:10304B009005B4EFF07E297F68122FF57E057FB4D3
:09305B007B007A00790002161BCB
:10317F00CBEFCB7E297F48122FF59000441216100B
:01318F00221D
:10306400CBEDCBCAEFCA7E297F50122FF5900044D6
:09307400EAF0900043121610224C
:102DBF00CBEFCBCAEECAC9EDC97E297F70122FF5B2
:102DCF00EB2440900046F0EB2440E43AA3F090004F
:102DDF0044E9F07E007F407B007A00790012161BD9
:012DEF0022C1
:0806EF009005AAEFF0A3EDF065
:1006F700900040E064056003020BE7A3E06401603B
:1007070003020BE7A3E064096003020BE7A3E064BD
:10071700026003020BE7FE7F05EEC0E0EFC0E07D5D
:10072700FF9005AAE075F005A424CFF9740535F00C
:10073700FA7B01D0E0FFD0E0FE12159EE49005B3EE
:10074700F0A3F09005ACF0A37404F09005AAE0754F
:10075700F01EA42406F582E43410F583C083C0821A
:100767009005ABE0D082D08375F006121592E0FEBB
:10077700A3E0FF9005ACE0FCA3E0FDC39FEC9E4027
:1007870003020B3F74402DF58274003CF583E0FFB4
:100797005403FD9005AEE4F0A3EDF0EF540C24FCF8
:1007A70070030208A324FC7003020999240860035C
:1007B700020AAA9005ACE0FEA3E02440F58274008B
:1007C7003EF583E054F0244070030208782440602B
:1007D700030208929005ADE004F070069005ACE0C6
:1007E70004F09005B1E0FE7002FF229005B2E070C0
:1007F7000204F09005B4E064037060F09005AAE08D
:10080700FF75F005A424CFF582E43405F583EEF0F7
:10081700EF75F005A424D3F582E43405F583E0FEF3
:10082700EF75F005A424D1F582E43405F583E06E75
:1008370070299005AAE0FF75F005A424CFF582E49E
:100847003405F583E01313543FFEEF75F005A42438
:10085700D3F582E43405F583E02EF09005B2E0FF8E
:100867009005B1E08FF0A4FF9005B3E02FF0E4808E
:1008770071E49005B2F09005B1F09005ADE004F099
:1008870070179005ACE004F0020AB89005ADE004DB
:10089700F070069005ACE004F0020AB89005ACE0F1
:1008A700FEA3E02440F58274003EF583E054F06037
:1008B7005E2490603424F0700302097024F0600312
:1008C7000209889005ADE004F070069005ACE004DD
:1008D700F09005ACE0FEA3E02440F58274003EF5FD
:1008E70083E09005B2F0020AB89005ADE004F0701D
:1008F700069005ACE004F09005ACE0FEA3E02440D0
:10090700F58274003EF583E09005B1F0020AB890D5
:1009170005ADE004F070069005ACE004F09005AC7E
:10092700E0FEA3E02440F58274003EF583E064090D
:100937006003020AB89005AEE07004A3E0640160AA
:1009470003020AB89005B3E0FE540760037F002254
:10095700EE131313541FFF9005AAE075F005A424A6
:10096700D0F582E43405020A949005ADE004F070F6
:10097700069005ACE004F09005B3E02408F0020A05
:10098700B89005ADE004F070069005ACE004F00205
:100997000AB89005ACE0FEA3E02440F58274003E5F
:1009A700F583E054F06003020A9A9005ADE004F085
:1009B70070069005ACE004F09005ACE0FEA3E024DF
:1009C70040F58274003EF583E0FE6430703C90058C
:1009D700AEE07004A3E0640170309005B3E0FD540D
:1009E7000760037F0022ED131313541FFF9005AA1E
:1009F700E075F005A424D1F582E43405F583EFF022
:100A07009005B4E04401F0020AB8EE6431703B90FF
:100A170005AEE07004A3E06401702F9005B3E0FE1B
:100A2700540760037F0022EE131313541FFF900532
:100A3700AAE075F005A424D2F582E43405F583EF26
:100A4700F09005B4E04402F080679005ACE0FEA3A7
:100A5700E02440F58274003EF583E06438705290DC
:100A670005AEE07004A3E0640170469005B3E0FEB4
:100A7700540760037F0022EE131313541FFF9005E2
:100A8700AAE075F005A424D3F582E43405F583EFD5
:100A9700F0801E9005ADE004F070169005ACE00400
:100AA700F0800E9005ADE004F070069005ACE00410
:100AB700F09005AEE0FEA3E0FF9005ADE02FF090CB
:100AC70005ACE03EF09005AAE0FF75F005A424CF41
:100AD700F582E43405F583E0F47003020752EF75FD
:100AE700F005A424D0F582E43405F583E0F470031F
:100AF7000207529005AAE075F005A424D1F582E417
:100B07003405F583E0F47003020752EF75F005A48E
:100B170024D2F582E43405F583E0F470030207522A
:100B27009005AAE075F005A424D3F582E43405F511
:100B370083E0F470030207529005B3E013131354D4
:100B47001FFF9005AAE0FE75F005A424D0F582E406
:100B57003405F583E0D39F501EEE75F005A424CF2E
:100B6700F582E43405F583E0FF640C603FEF640829
:100B7700603AEF641060359005ABE0FF12317F906B
:100B870005B0EFF09005AAE075F01EA4240AF582DF
:100B9700E43410F583C083C0829005ABE0FFD082B8
:100BA700D08375F006121592743280269005AAE05C
:100BB70075F01EA4240AF582E43410F583C083C0BF
:100BC700829005ABE0FFD082D08375F006121592B4
:100BD7007431F0E4FD1230649005B0EFF07F01222C
:100BE700900040E064057059A3E064017053A3E0EE
:100BF7006409704DA3E0640670479005ABE0FF12EF
:100C0700317F9005B0EFF070389005ABE0FFE4FD61
:100C17001230649005B0EFF09005AAE075F01EA4BD
:100C2700240AF582E43410F583C083C0829005ABB3
:100C3700E0D082D08375F0061215927430F07F01F0
:030C4700227F0009
:010C4A002287
:050C4B009005A4EFF08C
:100C5000122CB6E49005A6F0A3F07F017E001230BE
:100C6000AD9005A4E0FF12273FEF700E9005A6F0AF
:100C7000A3E004F0E0D3940A500C9005A6E004F041
:100C8000E0C3946440D49005A6E0600B9005A4E016
:100C9000FF122E1D7F03229005A4E0FF122D5A1291
:100CA0002C7C9005A7EFF06003020FC5900044E094
:100CB0009005A9F0902922E493FF9005A4E02FFF6E
:100CC000122E499005A7EFF06003020FC59029226C
:100CD00093FF9005A4E0FE2FFFEE75F01EA4240301
:100CE000F582E43410F583EFF01223089005A7EFA6
:100CF000F06003020FC5900044E0FF9005A4E0FE01
:100D000075F01EA42405F582E43410F583EFF0EEAF
:100D100075F01EA42405F582E43410F583E0D39425
:100D20000440037F0422900045E09005A8F0900065
:100D30004EE0FF9005A9E06003020FC5EF64036079
:100D400003020FC590004FE0D394014003020FC58A
:100D5000E49005A7F09005A6F09005A4E0FF75F0DB
:100D60001EA42405F582E43410F583E0FE9005A668
:100D7000E0C39E4003020F36A3E0FE2441F582E467
:100D80003400F583E0B4021274402EF582E434009E
:100D9000F583E0FE9005A7E02EF09005A7E0FE2485
:100DA00041F582E43400F583E0B4042174442EF567
:100DB00082E43400F583E09005A5F074402EF582BE
:100DC000E43400F583E0FE9005A7E02EF09005A73F
:100DD000E0FE2441F582E43400F583E06421600301
:100DE000020E9A74402EF582E43400F583E0FE9002
:100DF00005A7E02EF0E0FD243FF582E43400F58302
:100E0000E0FBEF75F01EA42406F582E43410F583B0
:100E1000C083C0829005A6E0D082D08375F0061210
:100E20001592E4F0A3EBF09005A4E0FC75F01EA48D
:100E30002406F582E43410F583C083C0829005A6B1
:100E4000E0D082D08375F006121592C083C082A3D1
:100E5000E0D082D083F0A3E4F0EC75F01EA4240669
:100E6000F582E43410F583C083C0829005A6E0D0FB
:100E700082D08375F006121592C083C082E0FEA373
:100E8000E0FF743E2DF582E43400F583E0FDEF4D84
:100E9000FFD082D083EEF0A3EFF09005A7E02441CD
:100EA000F582E43400F583E064056003020F2D90C1
:100EB00005A5E0FF14F0EF60749005A7E0FF244261
:100EC000F582E43400F583E030E714540FFE90051A
:100ED000A4E075F01EA42408F582E4341080249068
:100EE00005A7E0FF2442F582E43400F583E020E723
:100EF000BE540FFE9005A4E075F01EA42409F582EF
:100F0000E43410F583C083C0829005A6E0D082D07F
:100F10008375F006121592EEF074402FF582E434DA
:100F200000F583E0FF9005A7E02FF080829005A6F2
:100F3000E004F0020D599005A8E0FF12316E900513
:100F4000A7EFF06003020FC59005A6F09005A4E09E
:100F5000FF75F01EA42405F582E43410F583E0FE4D
:100F60009005A6E0FDC39E5043EF75F01EA4240635
:100F7000F582E43410F58375F006ED121592E0FE6B
:100F8000A3E0FF122DBF9005A7EFF070149005A409
:100F9000E0FF9005A6E0FD1206EF9005A7EFF080B8
:100FA000037F04229005A6E004F080A090100AE0E0
:100FB000B4300F901028E0B430089005DBE0FF1249
:0C0FC000304B7F10227F011231C07F06F1
:010FCC002202
:10297800E49005A3F09005A3E0FF64026047EF75BB
:10298800F01EA42402F582E43410F583E06402709A
:102998002C120C4BEF9005A36012E075F01EA424D6
:1029A80002F582E43410F583EFF08011E075F01E33
:1029B800A42402F582E43410F5837410F09005A382
:0729C800E004F080B07F0085
:0129CF0022E5
:102B8200C2EA75E280E4F5E39024477448F09024A9
:102B92004C7400F0A37400F090244E7400F0A374FF
:102BA20040F0E4F5D4F5D675E28975D24075D8FFC8
:0F2BB200FECFEECF122E1D0EEEB402F575E1032D
:012BC10022F1
:102E7500C2D81220FF9005A2EFF0BF1502D217208D
:102E850017079005A2E0B41511C2177FC87E00127E
:0A2E950030AD1229789005A2EFF08D
:012E9F002210
:1030C400122B82E49005DBF0C217FE7F3CFD7B01EE
:0730D4007A10790002159E3D
:100003009005A3EBF0A3EAF0A3E9F09005A2EFF0CB
:100013009005A6E0FBA3E0FAA3E0F9E4121490EF45
:1000230075F01EA42402F582E43410F583E0641015
:1000330060037F01229005A2E0FF122D5A9005A2D2
:10004300E075F01EA42405F582E43410F583E090F6
:1000530005B1F0E4A3F09005B1E0FFA3E0FEC39F78
:1000630040030206EC9005A2E075F01EA4240AF5F5
:1000730082E43410F58375F006EE121592E06430D5
:10008300600302021D9005A2E0FE75F01EA4240881
:10009300F582E43410F583C083C0829005B2E0FD9D
:1000A300D082D08375F006121592E04490FFEE756E
:1000B300F01EA4240BF582E43410F58375F006EDED
:1000C300121592E060047DC080027D00121DA9908C
:1000D30005B0EFF060030206E39005B3E5D1F090BD
:1000E30005A6E0FBA3E0FAA3E0F9121428FF9005AC
:1000F300A3E0FBA3E0FAA3E0F98F827583007430D9
:100103001214A29005A6E0FBA3E0FAA3E0F97401A0
:1001130012146E900002E0B4390B9005DBE0640228
:10012300FFF012304B900002E0B4530B9005DBE07C
:100133006401FFF012304B900002E0B4470B9005CE
:10014300DBE06404FFF012304B90100AE0B4301D82
:10015300901028E0B430169005A2E06401FF9005EA
:10016300B0F0122D5A9005DBE0FF12304BE49005FE
:10017300B0F09005B3E0FF9005B0E0FE6F603F7410
:10018300002EF582E43400F583E0FF9005A6E0FB42
:10019300A3E0FAA3E0F9121428FD9005B0E02DFDC9
:1001A300E433FC9005A3E0FBA3E0FAA3E0F98D821E
:1001B3008C83EF1214A29005B0E004F080B4900594
:1001C300B3E0FF9005A6E0FBA3E0FAA3E0F9EF128A
:1001D300146E9005A2E0FF75F01EA4240BF582E4D3
:1001E3003410F583C083C0829005B2E0FED082D084
:1001F3008375F006121592E060047D0080027D0194
:10020300EF75F01EA4240BF582E43410F58375F02A
:1002130006EE121592EDF07F00229005A2E0FE7526
:10022300F01EA4240AF582E43410F583C083C0824F
:100233009005B2E0FDD082D08375F006121592E0EE
:1002430064316003020583EE75F01EA42408F58271
:10025300E43410F58375F006ED121592E04490FF37
:10026300EE75F01EA4240BF582E43410F58375F0CB
:1002730006ED121592E060047DC080027D00121D20
:10028300A99005B0EFF060030206E39005A6E0FB3A
:10029300A3E0FAA3E0F9121428FF9005A3E0FBA35F
:1002A300E0FAA3E0F98F8275830074311214A290EF
:1002B30005A6E0FBA3E0FAA3E0F9740112146E9023
:1002C30005A2E0FF75F01EA4240BF582E43410F5BB
:1002D30083C083C0829005B2E0FED082D08375F0E4
:1002E30006121592E060047D0080027D01EF75F037
:1002F3001EA4240BF582E43410F58375F006EE1288
:100303001592EDF09005A9E0FBA3E0FAA3E0F9EA6A
:10031300494B603EA3E0FBA3E0FAA3E0F9EA494BB3
:100323006030E4A3F0AFD1FE9005A9E0FBA3E0FAAF
:10033300A3E0F8CCEACCCDEBCD7B017A00790012B7
:1003430014029005ACE0FBA3E0FAA3E0F9E5D112B7
:1003530014909005A2E0FF75F005A424D0F582E483
:100363003405F583E02400F582E43400F583E0FDF1
:100373009005A6E0FBA3E0FAA3E0F9121428FE908F
:1003830005A3E0FBA3E0FAA3E0F98E82758300EDF9
:100393001214A2EF75F005A424CFF582E43405F519
:1003A30083E0640C60030204399005A2E075F00554
:1003B300A424D1F582E43405F583E02400F582E436
:1003C3003400F583E0FFEE2401FDE433FC9005A344
:1003D300E0FBA3E0FAA3E0F98D828C83EF1214A271
:1003E3009005A2E075F005A424D1F582E43405F567
:1003F30083E02401F582E43400F583E0540FFFEE3B
:100403002402FDE433FC8D82F583EF1214A29005E0
:10041300A2E075F005A424D1F582E43405F583E068
:100423002402F582E43400F583E054F0C454F08DE3
:10043300828C830204FC9005A2E0FF75F005A424DE
:10044300CFF582E43405F583E06410704FEF75F067
:1004530005A424D1F582E43405F583E02400F58274
:10046300E43400F583E0FFEE2401FDE433FC900562
:10047300A3E0FBA3E0FAA3E0F98D828C83EF1214CF
:10048300A29005A2E075F005A424D1F582E4340519
:10049300F583E02402F582E4340080509005A2E065
:1004A30075F005A424D1F582E43405F583E0240036
:1004B300F582E43400F583E0FFEE2401FDE433FC30
:1004C3009005A3E0FBA3E0FAA3E0F98D828C83EF10
:1004D3001214A29005A2E075F005A424D1F582E4DC
:1004E3003405F583E02401F582E43400F583E0FF6D
:1004F300EEF582758300A3A3EF1214A29005A2E088
:1005030075F005A424D3F582E43405F583E0FFC335
:1005130095D1503274002FF582E43400F583E0FF67
:100523009005A6E0FBA3E0FAA3E0F9121428240344
:10053300FDE433FC9005A3E0FBA3E0FAA3E0F98D0F
:10054300828C83EF80249005A6E0FBA3E0FAA3E06E
:10055300F91214282403FFE433FE9005A3E0FBA360
:10056300E0FAA3E0F98F828E83E41214A29005A629
:10057300E0FBA3E0FAA3E0F9740412146E7F0022F7
:100583009005A2E0FE75F01EA4240AF582E434105F
:10059300F583C083C0829005B2E0FDD082D083751D
:1005A300F006121592E0643260030206E3EE75F082
:1005B3001EA42408F582E43410F58375F006ED12C9
:1005C3001592E04490FFEE75F01EA4240BF582E42F
:1005D3003410F58375F006ED121592E060047DC0CA
:1005E30080027D00E4FBFA121DAC9005B0EFF060D1
:1005F300030206E39005A6E0FBA3E0FAA3E0F912E9
:100603001428FF9005A3E0FBA3E0FAA3E0F98F828F
:1006130075830074321214A29005A6E0FBA3E0FADE
:10062300A3E0F9740112146EE49005AFF09005AFE6
:10063300E0FF65D1603F74002FF582E43400F58359
:10064300E0FF9005A6E0FBA3E0FAA3E0F91214286B
:10065300FD9005AFE02DFDE433FC9005A3E0FBA383
:10066300E0FAA3E0F98D828C83EF1214A29005AF18
:10067300E004F080B89005A2E0FF75F01EA4240BFF
:10068300F582E43410F583C083C0829005B2E0FEA6
:10069300D082D08375F006121592E060047D00804D
:1006A300027D01EF75F01EA4240BF582E43410F5EE
:1006B3008375F006EE121592EDF09005A6E0FBA30C
:1006C300E0FAA3E0F9121428B403129005A3E0FBA7
:1006D300A3E0FAA3E0F9900003E41214A27F00223E
:0B06E3009005B2E004F00200597F0314
:0106EE0022E9
:0B2264009005A3EBF0A3EAF0A3E9F063
:10226F00EF75F01EA42402F582E43410F583E064C8
:10227F00107076FEEF75F01EA42405F582E434107D
:10228F00F583E0FDEEC39D506F9005A3E0FBA3E047
:10229F00FAA3E0F975F002EEA4F58285F083EE1251
:1022AF0014A2EF75F01EA4240AF582E43410F5830E
:1022BF0075F006EE121592E0FD9005A3E0FBA3E08A
:1022CF00FAA3E0F975F002EEA42401F582E435F0EB
:1022DF00F583ED1214A29005A6E0FBA3E0FAA3E0AC
:1022EF00F9740212146E0E808B9005A6E0FBA3E02A
:0822FF00FAA3E0F9E4121490C7
:0123070022B3
:102B4000EF131313541FFEEF5407FF74602EF5822A
:102B5000E43405F583E022FBE4FCED5BFD74017ECB
:102B600000A8070822FFEE5CFEEF5D4E24FF2274F2
:102B7000812EF582E43405F583E0227B017A057924
:022B80006022D1
:06289F008B3C8A3D893EDE
:1028A500E478817C057D01122B7BFE7F21121402C9
:1028B500AB3CAA3DA93E121428900580F07E007F0E
:1028C500217D00122B7B12159E7F02AB3CAA3DA9F0
:0C28D5003E8F82758300121441FE6023C8
:1028E100131313541FF53FEE5407F5407460253F51
:1028F100122B4EFEAD407401A805088002C333D8E7
:03290100FC4EF099
:0B2904000FBF08C890057FE04480F082
:01290F0022A5
:102F8C00EF131313541FFEEF5407FF122B6FF4FDB6
:102F9C00122B4B122B578005C333CE33CED8F912DC
:022FAC002B6593
:012FAE002200
:10307D00122B40F4FD122B6F122B578005C333CE4C
:07308D0033CED8F9122B65C8
:013094002219
:10310900122B40FD7C00122B5D8005C333CE33CEDC
:05311900D8F9122B653E
:01311E00228E
:0432D800122B7B2218
:10315B0005A105A105A105A105A105A105A105A134
:03316B0005A12299
:1031A10075A15575A1AA53B3E043B30675A1FF22DA
:10313300EF4E600F12315B05A112315BEF1F70F090
:043143001E80ED22DB
:1030DB00AD07AC06ED4C600E7FE87E03123133ED8D
:0730EB001D70F11C80EE22B4
:102427000704161A2C280D0E4F5051526258595A4C
:102437000704161A2C280D0E4F5051526258595A3C
:10244700210A09063B0822191F07164D3A1A201BB5
:10245700492A4E4F414B4C4A260C0F363E1227371E
:1024670030285250402F315114391D2B29041EE0BA
:10247700241C0E103D18250D2D3334383F132EE143
:10248700170B112C3C15230500000000FF0000006E
:10249700E35C5F4445595A6056575561435D545351
:0824A700355E482C425B6362C4
:102C4F00014100014200014400014600014A000118
:102C5F004900C100C102C104C108C10AC101C103B9
:0A2C6F00C105C109C10BC106C10770
:102DF000EF93F582758300021441E4F54AC200C2E4
:102E000001C202C203C204C205D207F54922C200B0
:0D2E1000C208C20AC201C209C20BC20622DA
:0532B500A2A592002219
:093147001232B512326312321E7D
:0B315000300006200103D38001C322E1
:0B324200200006300103D38001C322EE
:0532BA00A200920122B8
:0532BF00A2A69202220C
:0B324D00300206200303D38001C322DF
:0B325800200206300303D38001C322D4
:0532C400A202920322AA
:0B326300E5C1C41313540313920822AA
:0B326E00300806200903D38001C322B2
:0B327900200806300903D38001C322A7
:0532C900A20892092299
:0C321E00E5C1C4131313540113920A22DB
:0B328400300A06200B03D38001C32298
:0B328F00200A06300B03D38001C3228D
:0532CE00A20A920B2290
:102EF200E4FF1232D88B3C8A3D893EE4F543FFABB6
:102F02003CAA3DA93E902427122DF04243E54325D9
:072F1200E0F5430FBF08E8E2
:012F19002295
:102F1A00E4FF1232D88B3C8A3D893EE4F545FFAB8B
:102F2A003CAA3DA93E90242F122DF04245E54525A5
:072F3A00E0F5450FBF08E8B8
:012F4100226D
:102EA000E4FF1232D88B3C8A3D893EE4F547FFAB04
:102EB0003CAA3DA93EEF902437122DF14247E54749
:082EC00025E0F5470FBF08E70C
:012EC80022E7
:102EC900E4FF1232D88B3C8A3D893EE4F548FFABDA
:102ED9003CAA3DA93EEF90243F122DF14248E54816
:082EE90025E0F5480FBF08E7E2
:012EF10022BE
:022C02008F3C05
:102C0400E4F53DF54AF53D75F008E53CA4253DF5B0
:102C140082E435F0F583E5822447F582E5833424A4
:102C2400F583E493FF1231095003434A01E54A2531
:0C2C3400E0F54A053DE53DC3940D40CBA2
:012C40002271
:0332DC008F3C2202
:1021B900E4F53C300C25F53C7F0112223540F9E469
:1021C900F53C12222440FBE4F53C7F031222354002
:1021D900F9E4F53C12224440FB8024E4F53C7F01FC
:1021E90012225540F9E4F53C12222440FBE4F53C67
:1021F9007F0312225540F9E4F53C12224440FBC208
:102209000D7F01122CEEC20D7F02122CEEC20D7F42
:0B22190003122CEEC20D7F04022CEE1D
:10222400AB3CE4FD7F02121CA4053CE53CC39408CE
:1022340022AB3C7D03121CA4053CE53CC39408225C
:10224400C20DC20EAF3C122BC2053CE53CC3940840
:1022540022AB3CE4FD121CA4053CE53CC3940822DB
:0532D300C20C0221B94C
:0132DF0022CC
:0E31CE00D20C1221B9E4F541F542122E0E2268
:1029D000122EF2122F1A1231475002D20630063749
:1029E0001232425010854341854542E5411392B26F
:1029F000E54213929212326E5009E54125E0F5410D
:102A00001392B21232791232845009E54225E0F570
:102A10004213929212328F1232BA1232C90232CE5D
:0E31DC00D20C1221B9E4F544F546122E0E2253
:102A2000122EA0122EC91231475002D2063006379C
:102A30001232425010854744854846E5441392B40B
:102A4000E54613929412326E5009E54425E0F544B0
:102A50001392B41232791232845009E54625E0F51A
:102A60004613929412328F1232BA1232C90232CE07
:09329A00D20C1221B9122DFA2206
:1024AF0020A7030225331232BF20A604D2078002D1
:1024BF00C20730A504E4F5492212325850020549EB
:1024CF00AF49122C023007047F0080027F04E54AD7
:1024DF00A807088002C313D8FC1392943007047F17
:1024EF000180027F05E54AA807088002C313D8FCC4
:1024FF001392953007047F0280027F06E54AA807F2
:10250F00088002C313D8FC1392963007047F038010
:10251F00027F07E54AA807088002C313D8FC13926D
:05252F00971232C422E6
:0932A300D20C1221B9122DFA22FD
:1025340020A7030225B81232BF20A604D2078002C6
:10254400C20730A504E4F549221232585002054965
:10255400AF491232DC3007047F0080027F04E54A71
:10256400A807088002C313D8FC1392943007047F91
:102574000180027F05E54AA807088002C313D8FC3E
:102584001392953007047F0280027F06E54AA8076C
:10259400088002C313D8FC1392963007047F03808B
:1025A400027F07E54AA807088002C313D8FC1392E8
:0525B400971232C42261
:1031900042C67401A8030822F452C67401A80308A9
:0131A000220C
:102CEE00EFD39404502F200D17EFB4040453C7EF05
:102CFE00227410A807088002C333D8FCF452C622EF
:102D0E00EFB4040443C710227410A807088002C34E
:062D1E0033D8FC42C6227E
:021CA400A9078E
:101CA600E9C394044003021DA8EDB40700400302F3
:101CB6001D86901CBFF8282873021CD4021CEA0259
:101CC6001D00021D19021D36021D53021D6C7401F2
:101CD600A801088002C333D8FC1231988002C333AE
:101CE600D8FC80437401A801088002C333D8FC12D3
:101CF60031988002C333D8FC80677401A80108803C
:101D060002C333D8FC1231988002C333D8FCF44E98
:101D1600FE806D7401A801088002C333D8FC12311D
:101D2600908002C333D8FCF4FF5EFEEC5FFC80506B
:101D36007401A801088002C333D8FC1231908002D6
:101D4600C333D8FCFF4EFEEFF45CFC80337401A86D
:101D560001088002C333D8FC1231908002C333D805
:101D6600FCFFF45E80167401A801088002C333D814
:101D7600FC1231908002C333D8FCFF4EFEEC4FFCC0
:101D8600E970058EC48CC522E9B401058EBA8CBBF8
:101D960022E9B402058EBC8CBD22E9B403048EBED2
:021DA6008CBFF0
:011DA8002218
:102BC200300D0F7401A807088002C333D8FC42C23B
:102BD200800E7401A807088002C333D8FCF452C2E5
:102BE200300E0E7401A807088002C333D8FC42C31A
:102BF200227401A807088002C333D8FCF452C3220E
:102A7000537461727420636865636B696E67207359
:102A80006C61766573210D0A00536C6176652025B3
:102A9000642069732076616C69642E0D0A004669B2
:102AA0006E697368656420636865636B696E67202F
:0A2AB000736C61766573210D0A0056
:07322A00D283123231D2827F
:043231007F40DFFEFD
:013235002276
:103015007B027D05E4FF121CA47B037D05E4FF1202
:0C3025001CA4D282123231D2830232315C
:0D32050012322AC283123231C282023231EB
:0230F200AE0727
:1030F4007D08EE33928312322CC282123231EE25D5
:04310400E0FEDDEE1E
:0131080022A4
:102FAF007D08D283123231D2821232313082FDEE5D
:102FBF0025E0FEA283E4334206C282123231DDE7FE
:022FCF00AF064B
:012FD10022DD
:072FD2002AF8E6FF1230F2BD
:102FD9007DFF7C0012322A30830BED1D70011CED40
:0B2FE9004C70F4D322C282123231C3BC
:012FF40022BA
:0C323600A219928312322CC282023231A3
:103095007D017C00C28312322CD283123231ED1DA8
:0730A50070011C144C70F7D0
:0130AC002201
:0F2ABA00E4F57C7BFF7A2A797012103812301500
:102AC900123205AF7C1230F2122FD9921A201A1243
:102AD9007BFF7A2A79899005A5E4F0A3E57CF012B9
:0B2AE9001038123095057CE57C70D59C
:092AF4007BFF7A2A799E0210385A
:10282B00E510450F7002FF22EF25E0F511EBD39475
:10283B000240027B02EB24FE600804700BEDF512E4
:10284B008006ECF512EDF5130B123205E4FAEAC330
:10285B009B50107411122FD250061230957F01220B
:10286B000A80EBAB0C050EE50EAA0D7002050D14DC
:10287B00F9121428122FD5400DE510151070021502
:10288B000F14450F70DD123095E510450F7002FFE8
:03289B00227FFF9A
:01289E002217
:1025B900E51C451B7002FF22EF25E0F51DEBD394C6
:1025C9000240027B02EB6025BB0105EDF51E80068A
:1025D900ECF51EEDF51F0B123205E4FAEAC39B5028
:1025E9000C741D122FD25002800E0A80EF12320590
:1025F900E51D04122FD550061230957F0122122FA6
:10260900AFAB18051AE51AAA197002051914F9EFE2
:10261900121490E51C151C7002151B14451B70073C
:10262900D2191232368007C21912323680D01230CE
:03263900957F008A
:01263C00227B
:022C7900C12177
:101E9F00EC75F080A4FFED7A002FFFEA35F0FE74A9
:101EAF00402FF58274013EF583E0FF22E0FDE550FF
:101EBF0025E02440F582E43405F583227440255350
:101ECF00F58274013552F58322750C00750D00757E
:101EDF000E7A750F00751001E4FBFDFC7F3C227438
:101EEF0008C39554FFE0FEA3E0A8070822FF33952F
:101EFF00E0FEEF25E0FFEE33FEED3395E0FCC3EFA0
:101F0F009DEC6480F8EE6480982275F080A4FFED5C
:101F1F007A002FFFEA35F0FE74402F22748025538C
:101F2F00F553E43552F552C36480948422ED1313B4
:101F3F0013541F75F080A4FFEC22C3E55264809404
:101F4F008022F58274013EF58322C374079565FEE6
:101F5F0074FFA8060822ED5407FE7401A806082294
:0D31EA00E4FFE4FE000EBEFFFB0FBFFFF58B
:0131F70022B5
:022D8D008F773E
:102D8F00123205E4F578F50C750D00750E78F50F18
:102D9F00751001FBFDFC7F3C12282B857778750C95
:102DAF0000750D00750E78121EE112282B0230955A
:023031008F7995
:10303300123205757A40121ED812282B85797A121E
:083043001ED812282B02309563
:1026BF001231EA7FAE122D8D7FD5122D8D7F8012B4
:1026CF002D8D7FA8122D8D7F3F122D8D7FD3122D33
:1026DF008DE4FF122D8D7F40122D8D7F8D122D8D4C
:1026EF007F14122D8D7F20122D8DE4FF122D8D7FE3
:1026FF00A1122D8D7FC8122D8D7FDA122D8D7F1295
:10270F00122D8D7F81122D8D7FCF122D8D7FD9129E
:10271F002D8D7FF1122D8D7FDB122D8D7F40122D90
:10272F008D7FA4122D8D7FA6122D8D7FAF022D8D43
:102AFD00E4F574F575F576F575F576E4F574E5762A
:102B0D00AE757807C333CE33CED8F97C002574FF6C
:102B1D00EC3E121EAD1230310574E574C394804045
:102B2D00DD0576E57670020575C39408E5759400AC
:022B3D0040C98D
:012B3F002273
:0F31B1007E047F007D007B017A01794002159E2C
:0819E5008F4B8C4C8D4D8B4E95
:1019ED00E54F7803A2E713D8FBF551E54BF404FF5F
:1019FD00C36480F8E54E64809850028F4ED3E54E57
:101A0D00648094FF4003021B65C3EF6480F8E54FCB
:101A1D0064809850028F4FD3E54F648094BF40038C
:101A2D00021B65E4F550E550C3954B4003021B6561
:101A3D007E00AD4EED3395E0FCED2550FFEE3CFE06
:101A4D00C3648094805003021B60C3EF9480EE64E6
:081A5D008094804003021B602D
:101A65007E00ED2550FDEE3CFCAF51EF3395E0FED9
:101A7500EF7807C333CE33CED8F92DF553EC3EF5C9
:101A850052E54F5407F554121F494041301B1D12B2
:101A95001ECBC083C082E0FF121EBDA3E0FEAD5485
:101AA500A805088002C333D8FC4F801C121ECBC08A
:101AB50083C082E0FF121EBDA3E0FEAD54A8050859
:101AC5008002C333D8FCF45FD082D083F0121F2B81
:101AD5004003021B60121F494039301B19121ECBEF
:101AE500C083C082121EBB121EEE8005CEC313CE6C
:101AF50013D8F94D8018121ECBC083C082121EBBAD
:101B0500121EEE8005CEC313CE13D8F9F45DD08234
:101B1500D083F0121F2B5043121F49403E301B1B30
:101B2500121ECBC083C082121EBB7410121EF08021
:101B350005CEC313CE13D8F94D801B121ECBC0831F
:101B4500C082121EBBC37410121EF18005CEC313D2
:0B1B5500CE13D8F9F45DD082D083F0ED
:051B60000550021A33DC
:011B6500225D
:0932AC008F678B688A69896A2228
:102D2400AC07ECD3947F502DEDD3943F5027301D46
:102D340012121F3C121EA6121F658002C333D8FC58
:102D44004FF022121F3C121EA6121F658002C333CD
:062D5400D8FCF45FF02240
:021F6F008B578E
:101F7100C3E5579FF559C3E5589DF55AD3E5596413
:101F810080948040047E0180027E00EE25E014F5FD
:101F91005BD3E55A6480948040047E0180027E0018
:101FA100EE25E014F55CAB07A905E4F55DD3E55931
:101FB100648094804004AF598005E559F404FF8F93
:101FC10059D3E55A648094804004AF5A8005E55A9C
:101FD100F404FF8F5AD3E55A6480F8E55964809878
:101FE1004026E5576B6047122030E55A255DF55DC7
:101FF100AD59121EFC400BE55C29F9C3E55D95590D
:10200100F55DE55B2BFB80DAE55869602112203034
:10201100E559255DF55DAD5A121EFC400BE55B2BC4
:0E202100FBC3E55D955AF55DE55C29F980DAB3
:0D202F0022AF03AD01A21E921D122D24222E
:061B66008F5E8B60A905F3
:101B6C00E55ED3947F4003021CA3E55E2560FFE491
:101B7C0033FED3EF9480EE6480948040067480959D
:101B8C005EF560E9D3943F4003021CA3E92561FF95
:101B9C00E433FED3EF9440EE6480948040057440AF
:101BAC0099F561AD5EE55E256014FFEDD39F4003B2
:031BBC00021CA365
:101BBF00E9131313541FF562E92561FFE433FEEFB8
:101BCF007803CEA2E713CE13D8F8F563E95407F5DF
:0F1BDF0064E56129145407F565E56265637039A3
:101BEE00F566AC64ECD3956550107401A8040880BA
:101BFE0002C333D8FC42660C80EAE562121F19302C
:101C0E001F0A121F51E04566F0021C9F121EB1E51D
:061C1E0066F4FEEF5EF02B
:101C2400021C9FAC62ECD395635070EC6562702A21
:101C3400301F15121E9FAE6474FFA806088002C3ED
:101C440033D8FC4FF0021C9B121E9FAE6474FFA895
:101C540006088002C333D8FC8024EC65637024300A
:101C64001F10121E9F121F598002C313D8FC4FF07D
:101C74008025121E9F121F598002C313D8FCF45FE3
:101C8400F08014EC121F19301F08121F5174FFF05A
:0B1C94008005121F51E4F00C021C2917
:041C9F000D021BB166
:011CA300221E
:04203C008F6FA905F4
:10204000E4F570F571EB757200F573C374019BFBD9
:10205000D3E5739571E5706480F8E572648098400B
:1020600062E56F25711220C4E56F25731220ED1211
:1020700020C4C3E56F95731220ED1220D1C3E56F24
:1020800095731220DFE56F25711220D1E56F25735E
:102090001220DFC3EB64809480500AE57125E024B0
:1020A000032BFB8013C3E571957325E024052BFBFF
:1020B000E5731573700215720571E5717092057004
:0320C000022050AB
:1020C30022FFE57329FDA220921D122D2422FFC3B6
:1020D300E99573FDA220921D122D2422FFC3E995D9
:1020E30071FDA220921D122D2422FFE57129FDA26C
:0C20F30020921D122D24C3E56F95712270
:0300000002239B3D
:0C239B00787FE4F6D8FD75817C0223E217
:10133200E709F608DFFA8046E709F208DFFA803E9D
:1013420088828C83E709F0A3DFFA8032E309F6088A
:10135200DFFA8078E309F208DFFA807088828C83F2
:10136200E309F0A3DFFA806489828A83E0A3F608A6
:10137200DFFA805889828A83E0A3F208DFFA804C80
:1013820080D280FA80C680D4806980F28033801057
:1013920080A680EA809A80A880DA80E280CA8033C0
:1013A20089828A83ECFAE493A3C8C582C8CCC58338
:1013B200CCF0A3C8C582C8CCC583CCDFE9DEE78008
:1013C2000D89828A83E493A3F608DFF9ECFAA9F087
:1013D200EDFB2289828A83ECFAE0A3C8C582C8CCDD
:1013E200C583CCF0A3C8C582C8CCC583CCDFEADEF6
:1013F200E880DB89828A83E493A3F208DFF980CC58
:1014020088F0EF60010E4E60C388F0ED2402B40450
:101412000050B9F582EB2402B4040050AF232345F7
:0614220082239013827387
:10142800BB010689828A83E0225002E722BBFE02C2
:09143800E32289828A83E49322F5
:10144100BB010CE58229F582E5833AF583E0225060
:1014510006E92582F8E622BBFE06E92582F8E222AA
:0D146100E58229F582E5833AF583E49322C4
:10146E00BB010989828A83F8E028F022500327F70E
:10147E0022BBFE05F8E328F3228A838982F8E493DF
:02148E00282212
:10149000BB010689828A83F0225002F722BBFE013B
:0214A000F32235
:1014A200F8BB010DE58229F582E5833AF583E8F080
:1014B200225006E92582C8F622BBFE05E92582C82C
:0214C200F22214
:1014C40075F008758200EF2FFFEE33FECD33CDCCDF
:1014D40033CCC58233C5829BED9AEC99E582984062
:1014E4000CF582EE9BFEED9AFDEC99FC0FD5F0D63F
:1014F400E4CEFBE4CDFAE4CCF9A88222B800C1B969
:101504000059BA002DEC8BF084CFCECDFCE5F0CBA6
:10151400F97818EF2FFFEE33FEED33FDEC33FCEBDF
:1015240033FB10D703994004EB99FB0FD8E5E4F99A
:10153400FA227818EF2FFFEE33FEED33FDEC33FC87
:10154400C933C910D7059BE99A4007EC9BFCE99A7B
:10155400F90FD8E0E4C9FAE4CCFB2275F010EF2FC0
:10156400FFEE33FEED33FDCC33CCC833C810D707C0
:101574009BEC9AE899400AED9BFDEC9AFCE899F8FB
:0E1584000FD5F0DAE4CDFBE4CCFAE4C8F9228E
:0C159200A42582F582E5F03583F5832264
:100FCD00E53C24A5F582E43405F583E0053C22904B
:100FDD0005A23013039005A5E475F0011215CA02A0
:100FED001428200CE97F2ED20C8018EF540F24907A
:100FFD00D43440D4FF30100BEF24BFB41A0050038B
:10100D002461FFE53D6002153D0540E54070020598
:10101D003F30130E9005A2E475F0011215CAEF02D0
:10102D001490022F427403D2138003E4C213F53CD3
:10103D009005A21215E1E4F53DF53FF540E53D6063
:10104D00077F2012101080F5753EFFC20DC20CC235
:10105D000EC20FC211C212C214120FDCFF700D307E
:10106D0013057F00121021AF40AE3F22B4255FC2A1
:10107D00D5C210120FDCFF24D0B40A00501A75F03F
:10108D000A783D30D50508B6FF0106C6A426F62020
:10109D00D5047002D20F80D924CFB41A00EF5004BA
:1010AD00C2E5D210021222D20D80C6D20C80C0D25F
:1010BD000E80BCD2D580BAD21180B47F2012101010
:1010CD00200E077401B53D0040F1120FCDFF121037
:1010DD001002104AD214D2128095120FCDFB120FAE
:1010ED00CDFA120FCDF94A4B700679F37A127BFFC8
:1010FD00200E2EE53D602A7E008E8275830012142F
:10110D004160060EEE653E70F0C2D5EBC0E0EAC060
:10111D00E0E9C0E0EE121269D0E0F9D0E0FAD0E0DB
:10112D00FB121428FF60AAEBC0E0EAC0E0E9C0E0C2
:10113D00121010D0E02401F9D0E03400FAD0E0FB19
:10114D00E53E0460DCD53ED980877BFF7A12796558
:10115D00D20E809C791080027908C212C2148008C8
:10116D00D2D5790A8004790AC2D5E53E047002F51C
:10117D003EE4FAFDFEFF120FCDFC7B08200D13128D
:10118D000FCDFD7B10300C0A120FCDFE120FCDFFCF
:10119D007B20EC3382D592D55013C3E4300C069FDF
:1011AD00FFE49EFEE4200D039DFDE49CFCE4CBF8E2
:1011BD00C20DEC700CCFCECDCCE824F8F870F380D6
:1011CD0017C3EF33FFEE33FEED33FDEC33FCEB33A2
:1011DD00FB994002FB0FD8E9EB300D05F8D0E0C4C8
:1011ED0048B20DC0E00AEC4D4E4F78207B0070C226
:1011FD00EAB53E0040BCC0E012126BD0F0D0E0204A
:10120D000D04C4C0E0C4B20DC0F0120FF9D0F0D57A
:10121D00F0EB02104A1215EA10E75311615810B89D
:10122D004C10B44211654F116D44116D4910CD43F1
:08123D001173551157461157BA
:101245004511574713135010BC2D10C02E10E32B1A
:1012550010C42310E12012FC2A107C48000010DB8A
:101265003F3F3F00790AA2D5200F14301109B9106C
:10127500020404B9080104A2D52012025001042079
:101285000E68920EB53D005034C0E07F20300F1936
:101295007F30A20E72127211500F1212C2C20EC20C
:1012A50012C211C2147F30800F301103E9C0E01261
:1012B5001010301103D0E0F9D0E0B53DCC30111756
:1012C5007F30B9100C1210107F583010077F7880CE
:1012D50003B90803121010300E057F2D0210107F80
:1012E500202014F87F2B2012F322920E80CF286E37
:1012F500756C6C2900D20D120FCD300DF8C20D782A
:101305003D30D50108F602107C2D50434958120F87
:10131500CD2403B405004001E490130E931210018F
:0D132500743A121001D20F753D04021161DF
:10159E00EF4E6012EF60010EEDBB010B89828A8364
:1015AE00F0A3DFFCDEFA2289F05007F709DFFCA971
:0C15BE00F022BBFEFCF309DFFCA9F022C8
:1023A70002181EE493A3F8E493A34003F68001F216
:1023B70008DFF48029E493A3F85407240CC8C33337
:1023C700C4540F4420C8834004F456800146F6DF06
:1023D700E4800B0102040810204080902C41E47E29
:1023E700019360BCA3FF543F30E509541FFEE493FB
:1023F700A360010ECF54C025E060A840B8E493A3C2
:10240700FAE493A3F8E493A3C8C582C8CAC583CAEC
:10241700F0A3C8C582C8CAC583CADFE9DEE780BEA4
:012C7B000058
:1015CA00F8E0FBA3A3E0F925F0F0E58215827002AA
:0715DA001583E0FA38F0224E
:0915E100EBF0A3EAF0A3E9F0220B
:1015EA00D083D082F8E4937012740193700DA3A390
:1015FA0093F8740193F5828883E4737402936860A4
:06160A00EFA3A3A380DFA3
:102F4200EFB40A07740D122F4D740A309811A89924
:102F5200B8130CC2983098FDA899C298B811F630EF
:072F620099FDC299F59922C7
:00000001FF
