:10263F005541525420696E697469616C697A656499
:10264F002E0A00457870496E746572666163652065
:10265F00696E697469616C697A65642E0A004B4D05
:10266F004C696220696E697469616C697A65642E60
:10267F000A002530325820000A0069666320253091
:10268F003278206B6579626F6172640A00696663E4
:10269F002025303278206D6F7573650A0069666387
:1026AF002025303278206D6F7573652D62696F73D9
:0226BF000A000F
:0A2C43004205DC0000017B00C19691
:102F6B0005A105A105A105A105A105A105A105A126
:102F7B0005A122A3F07B007A00793022743125253C
:032F8B00F8E62243
:10312100EF4E600F122F6B05A1122F6BEF1F70F086
:043131001E80ED22ED
:1030AF00AD07AC06ED4C600E7FE87E03123121EDCB
:0730BF001D70F11C80EE22E0
:10181E00C20C1221BB1231B77F147E001230DD12C2
:10182E0027B8D20C1231357BFF7A26793F12103849
:10183E007BFF7A2679521210381230C67BFF7A2639
:05184E00796D12103855
:10185300122E779005A6E4F0A37400F0A3743BF076
:10186300A3E4F0A37400F0A37426F0A3E4F0A3743C
:1018730000F0743A122F7EE4FF1200038F25E52552
:101883006003021950F525E525C3953B500B7A26D5
:1018930079811219BD052580EE7BFF7A267987129F
:1018A3001038122F801228A17F0512310BC0D07F70
:1018B3000112310BD0F072F7C0D07F0412310BC08C
:1018C300D0E4FF12310BD0F072F7D0F082F7C0D022
:1018D3007F0612310BC0D07F0212310BD0F072F7AA
:1018E300D0F082F750107F29122F8E5004057BD23F
:1018F300167F2912307F30162BE57B14601214609B
:1019030014146016146018240470171232DC801249
:101913001231E4800D1231F280081232A3800312D7
:1019230032ACC216E57B14601214601414601614F2
:101933006018240470171232E880121229D2800D25
:10194300122A2280081224B180031225369005DC66
:10195300E07002A3E0705274FF9005DCF0A3F090F6
:1019630005A6E4F0A37400F0743B122F7EE4FF128B
:101973002266E4F525E525C3953B502D122F87B448
:1019830030077A2679891219BD122F87B431077A65
:1019930026799C1219D2122F87B432077A2679AC92
:1019A3001219D20525052580CC9005DDE024FFF032
:0719B3009005DCE034FFF0B9
:1019BA000218537BFF74302525F8E6FF9005A5E44D
:1019CA00F0A3EFF0121038227BFF74302525F8E6D9
:0D19DA00FF9005A5E4F0A3EFF012103822F5
:1027B800C29FD29EC29DC2CDC2CC438780E4753FE2
:1027C80008753E02F53DF53C7B0AFAF9F8AF3FAED5
:1027D8003EAD3DAC3C121500AF038F40AF3FAE3E5F
:1027E800AD3DAC3CE47B0AFAF9F81215008F3F8E38
:1027F8003E8D3D8C3CE540C394054011EF2401F526
:102808003FE43EF53EE43DF53DE43CF53CE58954C6
:102818000F4420F58943C9A0E53FF404F58DD28E15
:04282800D299D29CD3
:01282C002289
:1031350043C60143C40843C50C300C0443CE1022DA
:0431450053CEEF2254
:102912008006000100001200800600020000040090
:102922000005020000000000000900000000000095
:102932000201000000000000A006002900000900BA
:102942008106002200004100210B0000000000006F
:10295200210A000000000000210A007D00000000A2
:10296200210A0016000000002109000200000100F7
:0829720081060022000088002C
:042C4D004105DA0063
:102E1F00EF75F01EA42402F582E43410F583E4F07C
:102E2F00EF75F01EA42403F582E43410F583E4F06B
:0C2E3F00EFB40104E4F5E522E4F5E42220
:10210100E49005BDF0E5DB30E32C901002E06005C2
:10211100E5E420E047E4FF122E1F9010027402F064
:10212100E5DB30E20280027F01901004EFF09005C0
:10213100BD7415F08026901002E0C39402401DE4A6
:10214100FF122E1F9005BDE070037416F07E007F14
:102151001E7D007B017A10790012159EE5DB30E7C8
:102161002D901020E06005E5E520E0487F01122E6A
:102171001F9010207402F0E5DB30E2031F80027F24
:1021810001901022EFF09005BD7415F0802690109B
:1021910020E0C39402401D7F01122E1F9005BDE077
:1021A10070037416F07E007F1E7D007B017A10792A
:0921B1001E12159E9005BDE0FF11
:0121BA002202
:0C321B00EF547FFFE5E354804FF5E32201
:0E31D600EF600753E2BF53D27F2243E2402254
:102CB800CEEFCE9005D97408F0E4FF12321BEEB4C3
:102CC800010F43E5027F0F7E001230AF53E5FD8010
:102CD8000D43E4027F0F7E001230AF53E4FD7FFA0C
:082CE8007E00123121C2D82246
:10274100EF75F01EA42402F582E43410F583E0C392
:1027510094025011EF75F01EA42402F582E43410A6
:10276100F5837402F0EF64017025E5DB30E745E5A0
:10277100E520E015E5DB30E6047F0080027F019073
:102781001022EFF0700343E50443E5017F0022E5E9
:10279100DB30E320E5E420E015E5DB30E2047F00F7
:1027A10080027F01901004EFF0700343E40443E4DE
:0727B100017F00227F1622C8
:102D5C00CEEFCEEE75F01EA42403F582E43410F50C
:102D6C0083E0FF12321BEE75F01EA42404F582E4FE
:102D7C003410F583E0FF1231D6EE6003D38001C32B
:032D8C0092182278
:031DAB00E4FBFA5C
:0B1DAE009005BAEFF0A3EAF0A3EBF001
:101DB900CFEDCF8FD68FD4E4F5DD9005BAE0F5D518
:101DC900C2D97F207E0320D909EF1F70011EEF4E73
:101DD90070F4E4F5D520D9037FFE2230D836C2D875
:101DE900122101EFB41502D217A218E433901002A0
:101DF90075F01E121592E475F01EA42583F583E093
:101E0900FE70037F1622EEB402037F15227FC87E7F
:101E19000012312130D96730DE037F0022E5D95421
:101E29000FFFB40E028043EFB40A299005BBE0FC12
:101E3900A3E0FD4C7003EF803EC3ED94FFEC94FFEB
:101E4900500E9005BCE024FFF09005BBE034FFF094
:101E590015DD802D9005BAE0C4540F24F7600D24D8
:101E6900FC6004240C7014EF6017800BEFB40304BA
:101E7900640B600DEF600A4420FF227FFE2275D8B3
:101E8900FF7F0F7E0012312105DDAFDDEFC3940A1C
:071E99005003021DC37F206E
:011EA000221F
:0B161000EBF07B007A007900E4FFFEA5
:10161B009005B5EEF0A3EFF0A3EBF0A3EAF0A3E98E
:10162B00F07FC87E001231219005B7E0FBA3E0FAF2
:10163B00A3E0F9EA494B6004E412149075D7087BD8
:10164B00107A27E4FD7FD0121DAE9005CAEFF06033
:10165B0003E0FF2275D6D075D4D075D70190004723
:10166B00E060047FFF8005900046E0FF9005CBEF24
:10167B00F070030217EB9005B5E07002A3E0700366
:10168B000217EB900040E020E70302174C9005CBCC
:10169B00E070030217467FC87E001231217B107A5F
:1016AB0027ADD47F90121DAE9005CAEFF0E0FF601E
:1016BB0001229005CBE0FFE5D1C39F5007AED1CF00
:1016CB00EECF80009005CCEFF09005CBE0FFA3E0D0
:1016DB00FEC3EF9E9005CBF09005B7E0FBA3E0FABD
:1016EB00A3E0F9EA494B6004EE12146EE49005CDC9
:1016FB00F09005CCE0FFA3E0FE6F602F74002EF599
:10170B0082E43400F583E0FF9005B5E0FCA3E0F53F
:10171B00828C83EFF09005B6E004F070069005B56F
:10172B00E004F09005CDE004F080C6E5D1600C90AC
:10173B0005D9E01455D17003021698E4F5D70217BA
:10174B00EB9005CBE070030217EB7FC87E001231E4
:10175B00219005D9E0FF9005CBE0FEC39F400280AE
:10176B0003CFEECF8FD7E49005CEF09005CEE0FF00
:10177B0065D7602F9005B5E0FCA3E0F5828C83E084
:10178B00FE74402FF582E43400F583EEF09005B63D
:10179B00E004F070069005B5E004F09005CEE0048F
:1017AB00F080C87B107A27ADD67F10121DAE900546
:1017BB00CAEFF0E0FF6001229005CBE0C395D7F0B4
:1017CB009005B7E0FBA3E0FAA3E0F9EA494B7003FD
:1017DB0002174C9005B7A3A3E5D712146E02174C52
:1017EB007FC87E00123121E5D760047F9080027F95
:1017FB00107B107A277DC0121DAE9005CAEFF060EA
:10180B0003E0FF22E5D77002FF22E5D17002FF2231
:02181B007F1735
:01181D0022A8
:102FF700E4FD8F828E83E493FC74402DF582E434E4
:0F30070000F583ECF00FBF00010E0DEDB408E3F0
:013016002297
:102C7E009005D97408F07E297F12122FF77E007FFF
:102C8E00407B017A0579AA12161BEF600122900093
:102C9E0047E09005D9F0902918E493FF9005AAE03B
:092CAE00C39F50037F17227F0031
:012CB70022FA
:10230A007E297F1A122FF77E007F407B017A05799A
:10231A00AA12161BEF600122902920E493FDC390B4
:10232A0005ABE09D9005AAE0940050037F17229028
:10233A000042E0FD9005AAE4F0A3EDF0D3E094405A
:10234A009005AAE0940040037F17227E297F1A1283
:10235A002FF79005AAA3E0900046F07E007F407B0D
:10236A00017A0579AA12161BEF600122902920E44E
:10237A0093FF9005AAE0FCA3E0FDC39FEC94004004
:10238A000C900042E0FFED9FEC940050037F17226F
:02239A007F00C2
:01239C00221E
:052E4B009005AAEFF064
:102E50007E297F22122FF79005AAE09000421216D9
:102E600011EF6001229005AAE0FF12321B7F0A7E5B
:062E7000001230AF7F00EC
:012E76002239
:10318400CBEFCB7E297F2A122FF790004212161024
:013194002218
:10304D009005B4EFF07E297F6A122FF77E057FB4CD
:09305D007B007A00790002161BC9
:10319500CBEFCB7E297F4A122FF7900044121610F1
:0131A5002207
:10306600CBEDCBCAEFCA7E297F52122FF7900044D0
:09307600EAF0900043121610224A
:102DC100CBEFCBCAEECAC9EDC97E297F72122FF7AC
:102DD100EB2440900046F0EB2440E43AA3F090004D
:102DE10044E9F07E007F407B007A00790012161BD7
:012DF10022BF
:0806EF009005AAEFF0A3EDF065
:1006F700900040E064056003020BE7A3E06401603B
:1007070003020BE7A3E064096003020BE7A3E064BD
:10071700026003020BE7FE7F05EEC0E0EFC0E07D5D
:10072700FF9005AAE075F005A424CFF9740535F00C
:10073700FA7B01D0E0FFD0E0FE12159EE49005B3EE
:10074700F0A3F09005ACF0A37404F09005AAE0754F
:10075700F01EA42406F582E43410F583C083C0821A
:100767009005ABE0D082D08375F006121592E0FEBB
:10077700A3E0FF9005ACE0FCA3E0FDC39FEC9E4027
:1007870003020B3F74402DF58274003CF583E0FFB4
:100797005403FD9005AEE4F0A3EDF0EF540C24FCF8
:1007A70070030208A324FC7003020999240860035C
:1007B700020AAA9005ACE0FEA3E02440F58274008B
:1007C7003EF583E054F0244070030208782440602B
:1007D700030208929005ADE004F070069005ACE0C6
:1007E70004F09005B1E0FE7002FF229005B2E070C0
:1007F7000204F09005B4E064037060F09005AAE08D
:10080700FF75F005A424CFF582E43405F583EEF0F7
:10081700EF75F005A424D3F582E43405F583E0FEF3
:10082700EF75F005A424D1F582E43405F583E06E75
:1008370070299005AAE0FF75F005A424CFF582E49E
:100847003405F583E01313543FFEEF75F005A42438
:10085700D3F582E43405F583E02EF09005B2E0FF8E
:100867009005B1E08FF0A4FF9005B3E02FF0E4808E
:1008770071E49005B2F09005B1F09005ADE004F099
:1008870070179005ACE004F0020AB89005ADE004DB
:10089700F070069005ACE004F0020AB89005ACE0F1
:1008A700FEA3E02440F58274003EF583E054F06037
:1008B7005E2490603424F0700302097024F0600312
:1008C7000209889005ADE004F070069005ACE004DD
:1008D700F09005ACE0FEA3E02440F58274003EF5FD
:1008E70083E09005B2F0020AB89005ADE004F0701D
:1008F700069005ACE004F09005ACE0FEA3E02440D0
:10090700F58274003EF583E09005B1F0020AB890D5
:1009170005ADE004F070069005ACE004F09005AC7E
:10092700E0FEA3E02440F58274003EF583E064090D
:100937006003020AB89005AEE07004A3E0640160AA
:1009470003020AB89005B3E0FE540760037F002254
:10095700EE131313541FFF9005AAE075F005A424A6
:10096700D0F582E43405020A949005ADE004F070F6
:10097700069005ACE004F09005B3E02408F0020A05
:10098700B89005ADE004F070069005ACE004F00205
:100997000AB89005ACE0FEA3E02440F58274003E5F
:1009A700F583E054F06003020A9A9005ADE004F085
:1009B70070069005ACE004F09005ACE0FEA3E024DF
:1009C70040F58274003EF583E0FE6430703C90058C
:1009D700AEE07004A3E0640170309005B3E0FD540D
:1009E7000760037F0022ED131313541FFF9005AA1E
:1009F700E075F005A424D1F582E43405F583EFF022
:100A07009005B4E04401F0020AB8EE6431703B90FF
:100A170005AEE07004A3E06401702F9005B3E0FE1B
:100A2700540760037F0022EE131313541FFF900532
:100A3700AAE075F005A424D2F582E43405F583EF26
:100A4700F09005B4E04402F080679005ACE0FEA3A7
:100A5700E02440F58274003EF583E06438705290DC
:100A670005AEE07004A3E0640170469005B3E0FEB4
:100A7700540760037F0022EE131313541FFF9005E2
:100A8700AAE075F005A424D3F582E43405F583EFD5
:100A9700F0801E9005ADE004F070169005ACE00400
:100AA700F0800E9005ADE004F070069005ACE00410
:100AB700F09005AEE0FEA3E0FF9005ADE02FF090CB
:100AC70005ACE03EF09005AAE0FF75F005A424CF41
:100AD700F582E43405F583E0F47003020752EF75FD
:100AE700F005A424D0F582E43405F583E0F470031F
:100AF7000207529005AAE075F005A424D1F582E417
:100B07003405F583E0F47003020752EF75F005A48E
:100B170024D2F582E43405F583E0F470030207522A
:100B27009005AAE075F005A424D3F582E43405F511
:100B370083E0F470030207529005B3E013131354D4
:100B47001FFF9005AAE0FE75F005A424D0F582E406
:100B57003405F583E0D39F501EEE75F005A424CF2E
:100B6700F582E43405F583E0FF640C603FEF640829
:100B7700603AEF641060359005ABE0FF1231959055
:100B870005B0EFF09005AAE075F01EA4240AF582DF
:100B9700E43410F583C083C0829005ABE0FFD082B8
:100BA700D08375F006121592743280269005AAE05C
:100BB70075F01EA4240AF582E43410F583C083C0BF
:100BC700829005ABE0FFD082D08375F006121592B4
:100BD7007431F0E4FD1230669005B0EFF07F01222A
:100BE700900040E064057059A3E064017053A3E0EE
:100BF7006409704DA3E0640670479005ABE0FF12EF
:100C070031959005B0EFF070389005ABE0FFE4FD4B
:100C17001230669005B0EFF09005AAE075F01EA4BB
:100C2700240AF582E43410F583C083C0829005ABB3
:100C3700E0D082D08375F0061215927430F07F01F0
:030C4700227F0009
:010C4A002287
:050C4B009005A4EFF08C
:100C5000122CB8E49005A6F0A3F07F017E001230BC
:100C6000AF9005A4E0FF122741EF700E9005A6F0AB
:100C7000A3E004F0E0D3940A500C9005A6E004F041
:100C8000E0C3946440D49005A6E0600B9005A4E016
:100C9000FF122E1F7F03229005A4E0FF122D5C128D
:100CA0002C7E9005A7EFF06003020FC5900044E092
:100CB0009005A9F0902924E493FF9005A4E02FFF6C
:100CC000122E4B9005A7EFF06003020FC590292468
:100CD00093FF9005A4E0FE2FFFEE75F01EA4240301
:100CE000F582E43410F583EFF012230A9005A7EFA4
:100CF000F06003020FC5900044E0FF9005A4E0FE01
:100D000075F01EA42405F582E43410F583EFF0EEAF
:100D100075F01EA42405F582E43410F583E0D39425
:100D20000440037F0422900045E09005A8F0900065
:100D30004EE0FF9005A9E06003020FC5EF64036079
:100D400003020FC590004FE0D394014003020FC58A
:100D5000E49005A7F09005A6F09005A4E0FF75F0DB
:100D60001EA42405F582E43410F583E0FE9005A668
:100D7000E0C39E4003020F36A3E0FE2441F582E467
:100D80003400F583E0B4021274402EF582E434009E
:100D9000F583E0FE9005A7E02EF09005A7E0FE2485
:100DA00041F582E43400F583E0B4042174442EF567
:100DB00082E43400F583E09005A5F074402EF582BE
:100DC000E43400F583E0FE9005A7E02EF09005A73F
:100DD000E0FE2441F582E43400F583E06421600301
:100DE000020E9A74402EF582E43400F583E0FE9002
:100DF00005A7E02EF0E0FD243FF582E43400F58302
:100E0000E0FBEF75F01EA42406F582E43410F583B0
:100E1000C083C0829005A6E0D082D08375F0061210
:100E20001592E4F0A3EBF09005A4E0FC75F01EA48D
:100E30002406F582E43410F583C083C0829005A6B1
:100E4000E0D082D08375F006121592C083C082A3D1
:100E5000E0D082D083F0A3E4F0EC75F01EA4240669
:100E6000F582E43410F583C083C0829005A6E0D0FB
:100E700082D08375F006121592C083C082E0FEA373
:100E8000E0FF743E2DF582E43400F583E0FDEF4D84
:100E9000FFD082D083EEF0A3EFF09005A7E02441CD
:100EA000F582E43400F583E064056003020F2D90C1
:100EB00005A5E0FF14F0EF60749005A7E0FF244261
:100EC000F582E43400F583E030E714540FFE90051A
:100ED000A4E075F01EA42408F582E4341080249068
:100EE00005A7E0FF2442F582E43400F583E020E723
:100EF000BE540FFE9005A4E075F01EA42409F582EF
:100F0000E43410F583C083C0829005A6E0D082D07F
:100F10008375F006121592EEF074402FF582E434DA
:100F200000F583E0FF9005A7E02FF080829005A6F2
:100F3000E004F0020D599005A8E0FF1231849005FD
:100F4000A7EFF06003020FC59005A6F09005A4E09E
:100F5000FF75F01EA42405F582E43410F583E0FE4D
:100F60009005A6E0FDC39E5043EF75F01EA4240635
:100F7000F582E43410F58375F006ED121592E0FE6B
:100F8000A3E0FF122DC19005A7EFF070149005A407
:100F9000E0FF9005A6E0FD1206EF9005A7EFF080B8
:100FA000037F04229005A6E004F080A090100AE0E0
:100FB000B4300F901028E0B430089005DBE0FF1249
:0C0FC000304D7F10227F011231D67F06D9
:010FCC002202
:10297A00E49005A3F09005A3E0FF64026047EF75B9
:10298A00F01EA42402F582E43410F583E064027098
:10299A002C120C4BEF9005A36012E075F01EA424D4
:1029AA0002F582E43410F583EFF08011E075F01E31
:1029BA00A42402F582E43410F5837410F09005A380
:0729CA00E004F080B07F0083
:0129D10022E3
:102B8400C2EA75E280E4F5E39024477448F09024A7
:102B94004C7400F0A37400F090244E7400F0A374FD
:102BA40040F0E4F5D4F5D675E28975D24075D8FFC6
:0F2BB400FECFEECF122E1F0EEEB402F575E10329
:012BC30022EF
:102E7700C2D81221019005A2EFF0BF1502D2172088
:102E870017079005A2E0B41511C2177FC87E00127C
:0A2E970030AF12297A9005A2EFF087
:012EA100220E
:1030C600122B84E49005DBF0C217FE7F3CFD7B01EA
:0730D6007A10790002159E3B
:100003009005A3EBF0A3EAF0A3E9F09005A2EFF0CB
:100013009005A6E0FBA3E0FAA3E0F9E4121490EF45
:1000230075F01EA42402F582E43410F583E0641015
:1000330060037F01229005A2E0FF122D5C9005A2D0
:10004300E075F01EA42405F582E43410F583E090F6
:1000530005B1F0E4A3F09005B1E0FFA3E0FEC39F78
:1000630040030206EC9005A2E075F01EA4240AF5F5
:1000730082E43410F58375F006EE121592E06430D5
:10008300600302021D9005A2E0FE75F01EA4240881
:10009300F582E43410F583C083C0829005B2E0FD9D
:1000A300D082D08375F006121592E04490FFEE756E
:1000B300F01EA4240BF582E43410F58375F006EDED
:1000C300121592E060047DC080027D00121DAB908A
:1000D30005B0EFF060030206E39005B3E5D1F090BD
:1000E30005A6E0FBA3E0FAA3E0F9121428FF9005AC
:1000F300A3E0FBA3E0FAA3E0F98F827583007430D9
:100103001214A29005A6E0FBA3E0FAA3E0F97401A0
:1001130012146E900002E0B4390B9005DBE0640228
:10012300FFF012304D900002E0B4530B9005DBE07A
:100133006401FFF012304D900002E0B4470B9005CC
:10014300DBE06404FFF012304D90100AE0B4301D80
:10015300901028E0B430169005A2E06401FF9005EA
:10016300B0F0122D5C9005DBE0FF12304DE49005FA
:10017300B0F09005B3E0FF9005B0E0FE6F603F7410
:10018300002EF582E43400F583E0FF9005A6E0FB42
:10019300A3E0FAA3E0F9121428FD9005B0E02DFDC9
:1001A300E433FC9005A3E0FBA3E0FAA3E0F98D821E
:1001B3008C83EF1214A29005B0E004F080B4900594
:1001C300B3E0FF9005A6E0FBA3E0FAA3E0F9EF128A
:1001D300146E9005A2E0FF75F01EA4240BF582E4D3
:1001E3003410F583C083C0829005B2E0FED082D084
:1001F3008375F006121592E060047D0080027D0194
:10020300EF75F01EA4240BF582E43410F58375F02A
:1002130006EE121592EDF07F00229005A2E0FE7526
:10022300F01EA4240AF582E43410F583C083C0824F
:100233009005B2E0FDD082D08375F006121592E0EE
:1002430064316003020583EE75F01EA42408F58271
:10025300E43410F58375F006ED121592E04490FF37
:10026300EE75F01EA4240BF582E43410F58375F0CB
:1002730006ED121592E060047DC080027D00121D20
:10028300AB9005B0EFF060030206E39005A6E0FB38
:10029300A3E0FAA3E0F9121428FF9005A3E0FBA35F
:1002A300E0FAA3E0F98F8275830074311214A290EF
:1002B30005A6E0FBA3E0FAA3E0F9740112146E9023
:1002C30005A2E0FF75F01EA4240BF582E43410F5BB
:1002D30083C083C0829005B2E0FED082D08375F0E4
:1002E30006121592E060047D0080027D01EF75F037
:1002F3001EA4240BF582E43410F58375F006EE1288
:100303001592EDF09005A9E0FBA3E0FAA3E0F9EA6A
:10031300494B603EA3E0FBA3E0FAA3E0F9EA494BB3
:100323006030E4A3F0AFD1FE9005A9E0FBA3E0FAAF
:10033300A3E0F8CCEACCCDEBCD7B017A00790012B7
:1003430014029005ACE0FBA3E0FAA3E0F9E5D112B7
:1003530014909005A2E0FF75F005A424D0F582E483
:100363003405F583E02400F582E43400F583E0FDF1
:100373009005A6E0FBA3E0FAA3E0F9121428FE908F
:1003830005A3E0FBA3E0FAA3E0F98E82758300EDF9
:100393001214A2EF75F005A424CFF582E43405F519
:1003A30083E0640C60030204399005A2E075F00554
:1003B300A424D1F582E43405F583E02400F582E436
:1003C3003400F583E0FFEE2401FDE433FC9005A344
:1003D300E0FBA3E0FAA3E0F98D828C83EF1214A271
:1003E3009005A2E075F005A424D1F582E43405F567
:1003F30083E02401F582E43400F583E0540FFFEE3B
:100403002402FDE433FC8D82F583EF1214A29005E0
:10041300A2E075F005A424D1F582E43405F583E068
:100423002402F582E43400F583E054F0C454F08DE3
:10043300828C830204FC9005A2E0FF75F005A424DE
:10044300CFF582E43405F583E06410704FEF75F067
:1004530005A424D1F582E43405F583E02400F58274
:10046300E43400F583E0FFEE2401FDE433FC900562
:10047300A3E0FBA3E0FAA3E0F98D828C83EF1214CF
:10048300A29005A2E075F005A424D1F582E4340519
:10049300F583E02402F582E4340080509005A2E065
:1004A30075F005A424D1F582E43405F583E0240036
:1004B300F582E43400F583E0FFEE2401FDE433FC30
:1004C3009005A3E0FBA3E0FAA3E0F98D828C83EF10
:1004D3001214A29005A2E075F005A424D1F582E4DC
:1004E3003405F583E02401F582E43400F583E0FF6D
:1004F300EEF582758300A3A3EF1214A29005A2E088
:1005030075F005A424D3F582E43405F583E0FFC335
:1005130095D1503274002FF582E43400F583E0FF67
:100523009005A6E0FBA3E0FAA3E0F9121428240344
:10053300FDE433FC9005A3E0FBA3E0FAA3E0F98D0F
:10054300828C83EF80249005A6E0FBA3E0FAA3E06E
:10055300F91214282403FFE433FE9005A3E0FBA360
:10056300E0FAA3E0F98F828E83E41214A29005A629
:10057300E0FBA3E0FAA3E0F9740412146E7F0022F7
:100583009005A2E0FE75F01EA4240AF582E434105F
:10059300F583C083C0829005B2E0FDD082D083751D
:1005A300F006121592E0643260030206E3EE75F082
:1005B3001EA42408F582E43410F58375F006ED12C9
:1005C3001592E04490FFEE75F01EA4240BF582E42F
:1005D3003410F58375F006ED121592E060047DC0CA
:1005E30080027D00E4FBFA121DAE9005B0EFF060CF
:1005F300030206E39005A6E0FBA3E0FAA3E0F912E9
:100603001428FF9005A3E0FBA3E0FAA3E0F98F828F
:1006130075830074321214A29005A6E0FBA3E0FADE
:10062300A3E0F9740112146EE49005AFF09005AFE6
:10063300E0FF65D1603F74002FF582E43400F58359
:10064300E0FF9005A6E0FBA3E0FAA3E0F91214286B
:10065300FD9005AFE02DFDE433FC9005A3E0FBA383
:10066300E0FAA3E0F98D828C83EF1214A29005AF18
:10067300E004F080B89005A2E0FF75F01EA4240BFF
:10068300F582E43410F583C083C0829005B2E0FEA6
:10069300D082D08375F006121592E060047D00804D
:1006A300027D01EF75F01EA4240BF582E43410F5EE
:1006B3008375F006EE121592EDF09005A6E0FBA30C
:1006C300E0FAA3E0F9121428B403129005A3E0FBA7
:1006D300A3E0FAA3E0F9900003E41214A27F00223E
:0B06E3009005B2E004F00200597F0314
:0106EE0022E9
:0B2266009005A3EBF0A3EAF0A3E9F061
:10227100EF75F01EA42402F582E43410F583E064C6
:10228100107076FEEF75F01EA42405F582E434107B
:10229100F583E0FDEEC39D506F9005A3E0FBA3E045
:1022A100FAA3E0F975F002EEA4F58285F083EE124F
:1022B10014A2EF75F01EA4240AF582E43410F5830C
:1022C10075F006EE121592E0FD9005A3E0FBA3E088
:1022D100FAA3E0F975F002EEA42401F582E435F0E9
:1022E100F583ED1214A29005A6E0FBA3E0FAA3E0AA
:1022F100F9740212146E0E808B9005A6E0FBA3E028
:08230100FAA3E0F9E4121490C4
:0123090022B1
:102B4200EF131313541FFEEF5407FF74602EF58228
:102B5200E43405F583E022FBE4FCED5BFD74017EC9
:102B620000A8070822FFEE5CFEEF5D4E24FF2274F0
:102B7200812EF582E43405F583E0227B017A057922
:022B82006022CF
:0628A1008B3C8A3D893EDC
:1028A700E478817C057D01122B7DFE7F21121402C5
:1028B700AB3CAA3DA93E121428900580F07E007F0C
:1028C700217D00122B7D12159E7F02AB3CAA3DA9EC
:0C28D7003E8F82758300121441FE6023C6
:1028E300131313541FF53FEE5407F5407460253F4F
:1028F300122B50FEAD407401A805088002C333D8E3
:03290300FC4EF097
:0B2906000FBF08C890057FE04480F080
:0129110022A3
:102F8E00EF131313541FFEEF5407FF122B71F4FDB2
:102F9E00122B4D122B598005C333CE33CED8F912D6
:022FAE002B678F
:012FB00022FE
:10307F00122B42F4FD122B71122B598005C333CE44
:07308F0033CED8F9122B67C4
:013096002217
:10310B00122B42FD7C00122B5F8005C333CE33CED6
:05311B00D8F9122B673A
:01312000228C
:0432E100122B7D220D
:1031710005A105A105A105A105A105A105A105A11E
:0331810005A12283
:1031B70075A15575A1AA53B3E043B30675A1FF22C4
:10314900EF4E600F12317105A1123171EF1F70F04E
:043159001E80ED22C5
:1030DD00AD07AC06ED4C600E7FE87E03123149ED75
:0730ED001D70F11C80EE22B2
:102429000704161A2C280D0E4F5051526258595A4A
:102439000704161A2C280D0E4F5051526258595A3A
:10244900210A09063B0822191F07164D3A1A201BB3
:10245900492A4E4F414B4C4A260C0F363E1227371C
:1024690030285250402F315114391D2B29041EE0B8
:10247900241C0E103D18250D2D3334383F132EE141
:10248900170B112C3C15230500000000FF0000006C
:10249900E35C5F4445595A6056575561435D54534F
:0824A900355E482C425B6362C2
:102C5100014100014200014400014600014A000116
:102C61004900C100C102C104C108C10AC101C103B7
:0A2C7100C105C109C10BC106C1076E
:102DF200EF93F582758300021441E4F54AC200C2E2
:102E020001C202C203C204C205D207F54922C200AE
:0D2E1200C208C20AC201C209C20BC20622D8
:0532BE00A2A592002210
:09315D001232BE12326C1232274C
:0B316600300006200103D38001C322CB
:0B324B00200006300103D38001C322E5
:0532C300A200920122AF
:0532C800A2A692022203
:0B325600300206200303D38001C322D6
:0B326100200206300303D38001C322CB
:0532CD00A202920322A1
:0B326C00E5C1C41313540313920822A1
:0B327700300806200903D38001C322A9
:0B328200200806300903D38001C3229E
:0532D200A20892092290
:0C322700E5C1C4131313540113920A22D2
:0B328D00300A06200B03D38001C3228F
:0B329800200A06300B03D38001C32284
:0532D700A20A920B2287
:102EF400E4FF1232E18B3C8A3D893EE4F543FFABAB
:102F04003CAA3DA93E902429122DF24243E54325D3
:072F1400E0F5430FBF08E8E0
:012F1B002293
:102F1C00E4FF1232E18B3C8A3D893EE4F545FFAB80
:102F2C003CAA3DA93E902431122DF24245E545259F
:072F3C00E0F5450FBF08E8B6
:012F4300226B
:102EA200E4FF1232E18B3C8A3D893EE4F547FFABF9
:102EB2003CAA3DA93EEF902439122DF34247E54743
:082EC20025E0F5470FBF08E70A
:012ECA0022E5
:102ECB00E4FF1232E18B3C8A3D893EE4F548FFABCF
:102EDB003CAA3DA93EEF902441122DF34248E54810
:082EEB0025E0F5480FBF08E7E0
:012EF30022BC
:022C04008F3C03
:102C0600E4F53DF54AF53D75F008E53CA4253DF5AE
:102C160082E435F0F583E5822449F582E5833424A0
:102C2600F583E493FF12310B5003434A01E54A252D
:0C2C3600E0F54A053DE53DC3940D40CBA0
:012C4200226F
:0332E5008F3C22F9
:1021BB00E4F53C300C25F53C7F0112223740F9E465
:1021CB00F53C12222640FBE4F53C7F0312223740FC
:1021DB00F9E4F53C12224640FB8024E4F53C7F01F8
:1021EB0012225740F9E4F53C12222640FBE4F53C61
:1021FB007F0312225740F9E4F53C12224640FBC202
:10220B000D7F01122CF0C20D7F02122CF0C20D7F3C
:0B221B0003122CF0C20D7F04022CF017
:10222600AB3CE4FD7F02121CA6053CE53CC39408CA
:1022360022AB3C7D03121CA6053CE53CC394082258
:10224600C20DC20EAF3C122BC4053CE53CC394083C
:1022560022AB3CE4FD121CA6053CE53CC3940822D7
:0532DC00C20C0221BB41
:0132E80022C3
:0E31E400D20C1221BBE4F541F542122E10224E
:1029D200122EF4122F1C12315D5002D2063006372D
:1029E20012324B5010854341854542E5411392B264
:1029F200E5421392921232775009E54125E0F54102
:102A02001392B212328212328D5009E54225E0F55C
:102A1200421392921232981232C31232D20232D737
:0E31F200D20C1221BBE4F544F546122E102239
:102A2200122EA2122ECB12315D5002D20630063780
:102A320012324B5010854744854846E5441392B400
:102A4200E5461392941232775009E54425E0F544A5
:102A52001392B412328212328D5009E54625E0F506
:102A6200461392941232981232C31232D20232D7E1
:0932A300D20C1221BB122DFC22F9
:1024B10020A7030225351232C820A604D2078002C4
:1024C100C20730A504E4F5492212326150020549E0
:1024D100AF49122C043007047F0080027F04E54AD3
:1024E100A807088002C313D8FC1392943007047F15
:1024F1000180027F05E54AA807088002C313D8FCC2
:102501001392953007047F0280027F06E54AA807EF
:10251100088002C313D8FC1392963007047F03800E
:10252100027F07E54AA807088002C313D8FC13926B
:05253100971232CD22DB
:0932AC00D20C1221BB122DFC22F0
:1025360020A7030225BA1232C820A604D2078002B9
:10254600C20730A504E4F54922123261500205495A
:10255600AF491232E53007047F0080027F04E54A66
:10256600A807088002C313D8FC1392943007047F8F
:102576000180027F05E54AA807088002C313D8FC3C
:102586001392953007047F0280027F06E54AA8076A
:10259600088002C313D8FC1392963007047F038089
:1025A600027F07E54AA807088002C313D8FC1392E6
:0525B600971232CD2256
:1031A60042C67401A8030822F452C67401A8030893
:0131B60022F6
:102CF000EFD39404502F200D17EFB4040453C7EF03
:102D0000227410A807088002C333D8FCF452C622EC
:102D1000EFB4040443C710227410A807088002C34C
:062D200033D8FC42C6227C
:021CA600A9078C
:101CA800E9C394044003021DAAEDB40700400302EF
:101CB8001D88901CC1F8282873021CD6021CEC024F
:101CC8001D02021D1B021D38021D55021D6E7401E6
:101CD800A801088002C333D8FC1231AE8002C33396
:101CE800D8FC80437401A801088002C333D8FC12D1
:101CF80031AE8002C333D8FC80677401A801088024
:101D080002C333D8FC1231AE8002C333D8FCF44E80
:101D1800FE806D7401A801088002C333D8FC12311B
:101D2800A68002C333D8FCF4FF5EFEEC5FFC805053
:101D38007401A801088002C333D8FC1231A68002BE
:101D4800C333D8FCFF4EFEEFF45CFC80337401A86B
:101D580001088002C333D8FC1231A68002C333D8ED
:101D6800FCFFF45E80167401A801088002C333D812
:101D7800FC1231A68002C333D8FCFF4EFEEC4FFCA8
:101D8800E970058EC48CC522E9B401058EBA8CBBF6
:101D980022E9B402058EBC8CBD22E9B403048EBED0
:021DA8008CBFEE
:011DAA002216
:102BC400300D0F7401A807088002C333D8FC42C239
:102BD400800E7401A807088002C333D8FCF452C2E3
:102BE400300E0E7401A807088002C333D8FC42C318
:102BF400227401A807088002C333D8FCF452C3220C
:102A7200537461727420636865636B696E67207357
:102A82006C61766573210D0A00536C6176652025B1
:102A9200642069732076616C69642E0D0A004669B0
:102AA2006E697368656420636865636B696E67202D
:0A2AB200736C61766573210D0A0054
:07323300D28312323AD2826D
:04323A007F40DFFEF4
:01323E00226D
:103017007B027D05E4FF121CA67B037D05E4FF12FE
:0C3027001CA6D28212323AD28302323A46
:0D320E00123233C28312323AC28202323AC7
:0230F400AE0725
:1030F6007D08EE339283123235C28212323AEE25C1
:04310600E0FEDDEE1C
:01310A0022A2
:102FB1007D08D28312323AD28212323A3082FDEE49
:102FC10025E0FEA283E4334206C28212323ADDE7F3
:022FD100AF0649
:012FD30022DB
:072FD4002AF8E6FF1230F4B9
:102FDB007DFF7C0012323330830BED1D70011CED35
:0B2FEB004C70F4D322C28212323AC3B1
:012FF60022B8
:0C323F00A2199283123235C28202323A88
:103097007D017C00C283123235D28312323AED1D94
:0730A70070011C144C70F7CE
:0130AE0022FF
:0F2ABC00E4F57C7BFF7A2A7972121038123017FA
:102ACB0012320EAF7C1230F4122FDB921A201A1234
:102ADB007BFF7A2A798B9005A5E4F0A3E57CF012B5
:0B2AEB001038123097057CE57C70D598
:092AF6007BFF7A2A79A002103856
:10282D00E510450F7002FF22EF25E0F511EBD39473
:10283D000240027B02EB24FE600804700BEDF512E2
:10284D008006ECF512EDF5130B12320EE4FAEAC325
:10285D009B50107411122FD450061230977F012205
:10286D000A80EBAB0C050EE50EAA0D7002050D14DA
:10287D00F9121428122FD7400DE5101510700215FE
:10288D000F14450F70DD123097E510450F7002FFE4
:03289D00227FFF98
:0128A0002215
:1025BB00E51C451B7002FF22EF25E0F51DEBD394C4
:1025CB000240027B02EB6025BB0105EDF51E800688
:1025DB00ECF51EEDF51F0B12320EE4FAEAC39B501D
:1025EB000C741D122FD45002800E0A80EF12320E83
:1025FB00E51D04122FD750061230977F0122122FA0
:10260B00B1AB18051AE51AAA197002051914F9EFDE
:10261B00121490E51C151C7002151B14451B70073A
:10262B00D21912323F8007C21912323F80D01230BA
:03263B00977F0086
:01263E002279
:022C7B00C12175
:101EA100EC75F080A4FFED7A002FFFEA35F0FE74A7
:101EB100402FF58274013EF583E0FF22E0FDE550FD
:101EC10025E02440F582E43405F58322744025534E
:101ED100F58274013552F58322750C00750D00757C
:101EE1000E7A750F00751001E4FBFDFC7F3C227436
:101EF10008C39554FFE0FEA3E0A8070822FF33952D
:101F0100E0FEEF25E0FFEE33FEED3395E0FCC3EF9D
:101F11009DEC6480F8EE6480982275F080A4FFED5A
:101F21007A002FFFEA35F0FE74402F22748025538A
:101F3100F553E43552F552C36480948422ED1313B2
:101F410013541F75F080A4FFEC22C3E55264809402
:101F51008022F58274013EF58322C374079565FEE4
:101F610074FFA8060822ED5407FE7401A806082292
:0D320000E4FFE4FE000EBEFFFB0FBFFFF574
:01320D00229E
:022D8F008F773C
:102D910012320EE4F578F50C750D00750E78F50F0D
:102DA100751001FBFDFC7F3C12282D857778750C91
:102DB10000750D00750E78121EE312282D02309752
:023033008F7993
:1030350012320E757A40121EDA12282D85797A120F
:083045001EDA12282D0230975B
:1026C1001232007FAE122D8F7FD5122D8F7F801297
:1026D1002D8F7FA8122D8F7F3F122D8F7FD3122D2B
:1026E1008FE4FF122D8F7F40122D8F7F8D122D8F42
:1026F1007F14122D8F7F20122D8FE4FF122D8F7FDB
:10270100A1122D8F7FC8122D8F7FDA122D8F7F128C
:10271100122D8F7F81122D8F7FCF122D8F7FD91296
:102721002D8F7FF1122D8F7FDB122D8F7F40122D88
:102731008F7FA4122D8F7FA6122D8F7FAF022D8F39
:102AFF00E4F574F575F576F575F576E4F574E57628
:102B0F00AE757807C333CE33CED8F97C002574FF6A
:102B1F00EC3E121EAF1230330574E574C39480403F
:102B2F00DD0576E57670020575C39408E5759400AA
:022B3F0040C98B
:012B41002271
:0F31C7007E047F007D007B017A01794002159E16
:0819E7008F4B8C4C8D4D8B4E93
:1019EF00E54F7803A2E713D8FBF551E54BF404FF5D
:1019FF00C36480F8E54E64809850028F4ED3E54E55
:101A0F00648094FF4003021B67C3EF6480F8E54FC7
:101A1F0064809850028F4FD3E54F648094BF40038A
:101A2F00021B67E4F550E550C3954B4003021B675B
:101A3F007E00AD4EED3395E0FCED2550FFEE3CFE04
:101A4F00C3648094805003021B62C3EF9480EE64E2
:081A5F008094804003021B6229
:101A67007E00ED2550FDEE3CFCAF51EF3395E0FED7
:101A7700EF7807C333CE33CED8F92DF553EC3EF5C7
:101A870052E54F5407F554121F4B4041301B1D12AE
:101A97001ECDC083C082E0FF121EBFA3E0FEAD547F
:101AA700A805088002C333D8FC4F801C121ECDC086
:101AB70083C082E0FF121EBFA3E0FEAD54A8050855
:101AC7008002C333D8FCF45FD082D083F0121F2D7D
:101AD7004003021B62121F4B4039301B19121ECDE7
:101AE700C083C082121EBD121EF08005CEC313CE66
:101AF70013D8F94D8018121ECDC083C082121EBDA7
:101B0700121EF08005CEC313CE13D8F9F45DD08230
:101B1700D083F0121F2D5043121F4B403E301B1B2A
:101B2700121ECDC083C082121EBD7410121EF28019
:101B370005CEC313CE13D8F94D801B121ECDC0831B
:101B4700C082121EBDC37410121EF38005CEC313CC
:0B1B5700CE13D8F9F45DD082D083F0EB
:051B62000550021A35D8
:011B6700225B
:0932B5008F678B688A69896A221F
:102D2600AC07ECD3947F502DEDD3943F5027301D44
:102D360012121F3E121EA8121F678002C333D8FC50
:102D46004FF022121F3E121EA8121F678002C333C5
:062D5600D8FCF45FF0223E
:021F71008B578C
:101F7300C3E5579FF559C3E5589DF55AD3E5596411
:101F830080948040047E0180027E00EE25E014F5FB
:101F93005BD3E55A6480948040047E0180027E0016
:101FA300EE25E014F55CAB07A905E4F55DD3E5592F
:101FB300648094804004AF598005E559F404FF8F91
:101FC30059D3E55A648094804004AF5A8005E55A9A
:101FD300F404FF8F5AD3E55A6480F8E55964809876
:101FE3004026E5576B6047122032E55A255DF55DC3
:101FF300AD59121EFE400BE55C29F9C3E55D955909
:10200300F55DE55B2BFB80DAE55869602112203230
:10201300E559255DF55DAD5A121EFE400BE55B2BC0
:0E202300FBC3E55D955AF55DE55C29F980DAB1
:0D20310022AF03AD01A21E921D122D26222A
:061B68008F5E8B60A905F1
:101B6E00E55ED3947F4003021CA5E55E2560FFE48D
:101B7E0033FED3EF9480EE6480948040067480959B
:101B8E005EF560E9D3943F4003021CA5E92561FF91
:101B9E00E433FED3EF9440EE6480948040057440AD
:101BAE0099F561AD5EE55E256014FFEDD39F4003B0
:031BBE00021CA561
:101BC100E9131313541FF562E92561FFE433FEEFB6
:101BD1007803CEA2E713CE13D8F8F563E95407F5DD
:0F1BE10064E56129145407F565E56265637039A1
:101BF000F566AC64ECD3956550107401A8040880B8
:101C000002C333D8FC42660C80EAE562121F1B3027
:101C10001F0A121F53E04566F0021CA1121EB3E515
:061C200066F4FEEF5EF029
:101C2600021CA1AC62ECD395635070EC6562702A1D
:101C3600301F15121EA1AE6474FFA806088002C3E9
:101C460033D8FC4FF0021C9D121EA1AE6474FFA88F
:101C560006088002C333D8FC8024EC656370243008
:101C66001F10121EA1121F5B8002C313D8FC4FF077
:101C76008025121EA1121F5B8002C313D8FCF45FDD
:101C8600F08014EC121F1B301F08121F5374FFF054
:0B1C96008005121F53E4F00C021C2B11
:041CA1000D021BB362
:011CA500221C
:04203E008F6FA905F2
:10204200E4F570F571EB757200F573C374019BFBD7
:10205200D3E5739571E5706480F8E5726480984009
:1020620062E56F25711220C6E56F25731220EF120B
:1020720020C6C3E56F95731220EF1220D3C3E56F1C
:1020820095731220E1E56F25711220D3E56F257358
:102092001220E1C3EB64809480500AE57125E024AC
:1020A200032BFB8013C3E571957325E024052BFBFD
:1020B200E5731573700215720571E5717092057002
:0320C200022052A7
:1020C50022FFE57329FDA220921D122D2622FFC3B2
:1020D500E99573FDA220921D122D2622FFC3E995D5
:1020E50071FDA220921D122D2622FFE57129FDA268
:0C20F50020921D122D26C3E56F9571226C
:0300000002239D3B
:0C239D00787FE4F6D8FD75817C0223E413
:10133200E709F608DFFA8046E709F208DFFA803E9D
:1013420088828C83E709F0A3DFFA8032E309F6088A
:10135200DFFA8078E309F208DFFA807088828C83F2
:10136200E309F0A3DFFA806489828A83E0A3F608A6
:10137200DFFA805889828A83E0A3F208DFFA804C80
:1013820080D280FA80C680D4806980F28033801057
:1013920080A680EA809A80A880DA80E280CA8033C0
:1013A20089828A83ECFAE493A3C8C582C8CCC58338
:1013B200CCF0A3C8C582C8CCC583CCDFE9DEE78008
:1013C2000D89828A83E493A3F608DFF9ECFAA9F087
:1013D200EDFB2289828A83ECFAE0A3C8C582C8CCDD
:1013E200C583CCF0A3C8C582C8CCC583CCDFEADEF6
:1013F200E880DB89828A83E493A3F208DFF980CC58
:1014020088F0EF60010E4E60C388F0ED2402B40450
:101412000050B9F582EB2402B4040050AF232345F7
:0614220082239013827387
:10142800BB010689828A83E0225002E722BBFE02C2
:09143800E32289828A83E49322F5
:10144100BB010CE58229F582E5833AF583E0225060
:1014510006E92582F8E622BBFE06E92582F8E222AA
:0D146100E58229F582E5833AF583E49322C4
:10146E00BB010989828A83F8E028F022500327F70E
:10147E0022BBFE05F8E328F3228A838982F8E493DF
:02148E00282212
:10149000BB010689828A83F0225002F722BBFE013B
:0214A000F32235
:1014A200F8BB010DE58229F582E5833AF583E8F080
:1014B200225006E92582C8F622BBFE05E92582C82C
:0214C200F22214
:1014C40075F008758200EF2FFFEE33FECD33CDCCDF
:1014D40033CCC58233C5829BED9AEC99E582984062
:1014E4000CF582EE9BFEED9AFDEC99FC0FD5F0D63F
:1014F400E4CEFBE4CDFAE4CCF9A88222B800C1B969
:101504000059BA002DEC8BF084CFCECDFCE5F0CBA6
:10151400F97818EF2FFFEE33FEED33FDEC33FCEBDF
:1015240033FB10D703994004EB99FB0FD8E5E4F99A
:10153400FA227818EF2FFFEE33FEED33FDEC33FC87
:10154400C933C910D7059BE99A4007EC9BFCE99A7B
:10155400F90FD8E0E4C9FAE4CCFB2275F010EF2FC0
:10156400FFEE33FEED33FDCC33CCC833C810D707C0
:101574009BEC9AE899400AED9BFDEC9AFCE899F8FB
:0E1584000FD5F0DAE4CDFBE4CCFAE4C8F9228E
:0C159200A42582F582E5F03583F5832264
:100FCD00E53C24A5F582E43405F583E0053C22904B
:100FDD0005A23013039005A5E475F0011215CA02A0
:100FED001428200CE97F2ED20C8018EF540F24907A
:100FFD00D43440D4FF30100BEF24BFB41A0050038B
:10100D002461FFE53D6002153D0540E54070020598
:10101D003F30130E9005A2E475F0011215CAEF02D0
:10102D001490022F447403D2138003E4C213F53CD1
:10103D009005A21215E1E4F53DF53FF540E53D6063
:10104D00077F2012101080F5753EFFC20DC20CC235
:10105D000EC20FC211C212C214120FDCFF700D307E
:10106D0013057F00121021AF40AE3F22B4255FC2A1
:10107D00D5C210120FDCFF24D0B40A00501A75F03F
:10108D000A783D30D50508B6FF0106C6A426F62020
:10109D00D5047002D20F80D924CFB41A00EF5004BA
:1010AD00C2E5D210021222D20D80C6D20C80C0D25F
:1010BD000E80BCD2D580BAD21180B47F2012101010
:1010CD00200E077401B53D0040F1120FCDFF121037
:1010DD001002104AD214D2128095120FCDFB120FAE
:1010ED00CDFA120FCDF94A4B700679F37A127BFFC8
:1010FD00200E2EE53D602A7E008E8275830012142F
:10110D004160060EEE653E70F0C2D5EBC0E0EAC060
:10111D00E0E9C0E0EE121269D0E0F9D0E0FAD0E0DB
:10112D00FB121428FF60AAEBC0E0EAC0E0E9C0E0C2
:10113D00121010D0E02401F9D0E03400FAD0E0FB19
:10114D00E53E0460DCD53ED980877BFF7A12796558
:10115D00D20E809C791080027908C212C2148008C8
:10116D00D2D5790A8004790AC2D5E53E047002F51C
:10117D003EE4FAFDFEFF120FCDFC7B08200D13128D
:10118D000FCDFD7B10300C0A120FCDFE120FCDFFCF
:10119D007B20EC3382D592D55013C3E4300C069FDF
:1011AD00FFE49EFEE4200D039DFDE49CFCE4CBF8E2
:1011BD00C20DEC700CCFCECDCCE824F8F870F380D6
:1011CD0017C3EF33FFEE33FEED33FDEC33FCEB33A2
:1011DD00FB994002FB0FD8E9EB300D05F8D0E0C4C8
:1011ED0048B20DC0E00AEC4D4E4F78207B0070C226
:1011FD00EAB53E0040BCC0E012126BD0F0D0E0204A
:10120D000D04C4C0E0C4B20DC0F0120FF9D0F0D57A
:10121D00F0EB02104A1215EA10E75311615810B89D
:10122D004C10B44211654F116D44116D4910CD43F1
:08123D001173551157461157BA
:101245004511574713135010BC2D10C02E10E32B1A
:1012550010C42310E12012FC2A107C48000010DB8A
:101265003F3F3F00790AA2D5200F14301109B9106C
:10127500020404B9080104A2D52012025001042079
:101285000E68920EB53D005034C0E07F20300F1936
:101295007F30A20E72127211500F1212C2C20EC20C
:1012A50012C211C2147F30800F301103E9C0E01261
:1012B5001010301103D0E0F9D0E0B53DCC30111756
:1012C5007F30B9100C1210107F583010077F7880CE
:1012D50003B90803121010300E057F2D0210107F80
:1012E500202014F87F2B2012F322920E80CF286E37
:1012F500756C6C2900D20D120FCD300DF8C20D782A
:101305003D30D50108F602107C2D50434958120F87
:10131500CD2403B405004001E490130E931210018F
:0D132500743A121001D20F753D04021161DF
:10159E00EF4E6012EF60010EEDBB010B89828A8364
:1015AE00F0A3DFFCDEFA2289F05007F709DFFCA971
:0C15BE00F022BBFEFCF309DFFCA9F022C8
:1023A90002181EE493A3F8E493A34003F68001F214
:1023B90008DFF48029E493A3F85407240CC8C33335
:1023C900C4540F4420C8834004F456800146F6DF04
:1023D900E4800B0102040810204080902C43E47E25
:1023E900019360BCA3FF543F30E509541FFEE493F9
:1023F900A360010ECF54C025E060A840B8E493A3C0
:10240900FAE493A3F8E493A3C8C582C8CAC583CAEA
:10241900F0A3C8C582C8CAC583CADFE9DEE780BEA2
:012C7D000056
:1015CA00F8E0FBA3A3E0F925F0F0E58215827002AA
:0715DA001583E0FA38F0224E
:0915E100EBF0A3EAF0A3E9F0220B
:1015EA00D083D082F8E4937012740193700DA3A390
:1015FA0093F8740193F5828883E4737402936860A4
:06160A00EFA3A3A380DFA3
:102F4400EFB40A07740D122F4F740A309811A89920
:102F5400B8130CC2983098FDA899C298B811F630ED
:072F640099FDC299F59922C5
:00000001FF
