:1000D800C100011100080880401020010402080135
:0200E800100006
:0D00060074082510F8E6551124FF92B6226B
:1000EB00E4F592F5917590FFF5B2F5B175B0FF227D
:0B010A00C288D2A8D28AD2AAD2AF22AB
:030003000200A256
:1000A200C0E0C0D075D000C00030000830B20505F5
:0B00B20010120006D000D0D0D0E032C9
:030013000200BD2B
:1000BD00C0E0C0D075D000C000D200859011751081
:0B00CD0000120006D000D0D0D0E032BE
:0F00FB001200EB12010A4387020000000080F799
:03000000020016E5
:0C001600787FE4F6D8FD75812002005DC3
:100022000200FBE493A3F8E493A34003F68001F2F9
:1000320008DFF48029E493A3F85407240CC8C333DF
:10004200C4540F4420C8834004F456800146F6DFAE
:10005200E4800B01020408102040809000D8E47E66
:10006200019360BCA3FF543F30E509541FFEE493A3
:10007200A360010ECF54C025E060A840B8E493A36A
:10008200FAE493A3F8E493A3C8C582C8CAC583CA95
:10009200F0A3C8C582C8CAC583CADFE9DEE780BE4D
:0100EA000015
:00000001FF
