:05012E00C10001080002
:0E011300E4F5B2F5B1F5B0F5CAF5C9F5C822AC
:1000F200538E7F5389F0758A8C758CBFC28DD28CDA
:0101020022DA
:0D012100538EFB75D7DC75D60B538EEF2285
:10010300D288D2A8D2A9D28AD2AA43AF08D2AF2228
:03000300020006F2
:040006007508003247
:03000B00020048A8
:10004800C0E0C0D0B2CC0508E508D394FA400575E5
:090058000800D200D0D0D0E03243
:0300130002000EDA
:04000E00750800323F
:0300630002013463
:03013400B2CD3217
:100016001201131200F2120121120103E58730E5E5
:1000260008438E105387208005538EEFD2CD3000C3
:10003600EBC2A9C2CC43870200000000C200D2A9CD
:0200460080DA5E
:0300000002006695
:0C006600787FE4F6D8FD7581200200AD23
:10007200020016E493A3F8E493A34003F68001F28E
:1000820008DFF48029E493A3F85407240CC8C3338F
:10009200C4540F4420C8834004F456800146F6DF5E
:1000A200E4800B010204081020408090012EE47EBF
:1000B200019360BCA3FF543F30E509541FFEE49353
:1000C200A360010ECF54C025E060A840B8E493A31A
:1000D200FAE493A3F8E493A3C8C582C8CAC583CA45
:1000E200F0A3C8C582C8CAC583CADFE9DEE780BEFD
:0101330000CB
:00000001FF
