:05011200C1000108001E
:1000F500E4F5B2F5B175B0FFF5CAF5C975C8FF22CB
:1000E400538E7F5389F0758AC0758CE0C28DD28C93
:0100F40022E9
:0D010500D288D2A8D28AD2AAD2A9D2AF2223
:020003000105F5
:06000500750800D2A932CB
:02000B0001CB27
:1000CB00C0E0C0D0B2CC0508E508D394FA40057562
:0900DB000800D200D0D0D0E032C0
:02001300010DDD
:06000D00750800D2A932C3
:1000A10011F511E43105E58730E507C2CD5387DF4E
:1000B1008002D2CD3000EFC2A9C2CCD2CD4387029B
:0A00C10000000000C200D2A980DC9C
:03000000020015E6
:0C001500787FE4F6D8FD75812002005CC5
:100021000200A1E493A3F8E493A34003F68001F254
:1000310008DFF48029E493A3F85407240CC8C333E0
:10004100C4540F4420C8834004F456800146F6DFAF
:10005100E4800B0102040810204080900112E47E2C
:10006100019360BCA3FF543F30E509541FFEE493A4
:10007100A360010ECF54C025E060A840B8E493A36B
:10008100FAE493A3F8E493A3C8C582C8CAC583CA96
:10009100F0A3C8C582C8CAC583CADFE9DEE780BE4E
:0101170000E7
:00000001FF
