:05012200C1000108000E
:1000F900E4F5B2F5B175B0FFF5CAF5C975C8FF22C7
:1000E800538E7F5389F0758AC0758CE0C28DD28C8F
:0100F80022E5
:0D010900D288D2A8D28AD2AAD2A9D2AF221F
:03000300020116E1
:06011600750800D2A932B9
:03000B000200CF21
:1000CF00C0E0C0D0B2CC0508E508D394FA4005755E
:0900DF000800D200D0D0D0E032BC
:0300130002011CCB
:06011C00750800D2A932B3
:1000A2001200F91200E8120109E58730E507C2CD16
:1000B2005387DF8002D2CD3000EFC2A9C2CCD2CDAD
:0D00C20043870200000000C200D2A980DCCC
:03000000020016E5
:0C001600787FE4F6D8FD75812002005DC3
:100022000200A2E493A3F8E493A34003F68001F252
:1000320008DFF48029E493A3F85407240CC8C333DF
:10004200C4540F4420C8834004F456800146F6DFAE
:10005200E4800B0102040810204080900122E47E1B
:10006200019360BCA3FF543F30E509541FFEE493A3
:10007200A360010ECF54C025E060A840B8E493A36A
:10008200FAE493A3F8E493A3C8C582C8CAC583CA95
:10009200F0A3C8C582C8CAC583CADFE9DEE780BE4D
:0101270000D7
:00000001FF
