:0200CA00C180F3
:0F00B400E4F5B2F5B175B0FFF5CAF5C9F5C8228C
:0700C300D288D2A8D2AF22BF
:0200030001A357
:1000A300C0E020B307E5B0C454F0F5C8D200D0E0F7
:0100B300321A
:1000910011B411C33000FD43870200000000C2000B
:0200A10080F2EB
:03000000020005F6
:0C000500787FE4F6D8FD75812002004CE5
:10001100020091E493A3F8E493A34003F68001F274
:1000210008DFF48029E493A3F85407240CC8C333F0
:10003100C4540F4420C8834004F456800146F6DFBF
:10004100E4800B01020408102040809000CAE47E85
:10005100019360BCA3FF543F30E509541FFEE493B4
:10006100A360010ECF54C025E060A840B8E493A37B
:10007100FAE493A3F8E493A3C8C582C8CAC583CAA6
:10008100F0A3C8C582C8CAC583CADFE9DEE780BE5E
:0100CC000033
:00000001FF
